{
  "_format": "hh-sol-artifact-1",
  "contractName": "PatentAssetManager",
  "sourceName": "contracts/modules/PatentAssetManager.sol",
  "abi": [
    {
      "anonymous": false,
      "inputs": [
        {
          "indexed": false,
          "internalType": "uint8",
          "name": "version",
          "type": "uint8"
        }
      ],
      "name": "Initialized",
      "type": "event"
    },
    {
      "anonymous": false,
      "inputs": [
        {
          "indexed": true,
          "internalType": "address",
          "name": "multisig",
          "type": "address"
        },
        {
          "indexed": false,
          "internalType": "bool",
          "name": "authorized",
          "type": "bool"
        }
      ],
      "name": "MultisigAuthorized",
      "type": "event"
    },
    {
      "anonymous": false,
      "inputs": [
        {
          "indexed": true,
          "internalType": "string",
          "name": "patentNumber",
          "type": "string"
        },
        {
          "indexed": false,
          "internalType": "uint256",
          "name": "valuation",
          "type": "uint256"
        },
        {
          "indexed": false,
          "internalType": "uint256",
          "name": "weight",
          "type": "uint256"
        }
      ],
      "name": "PatentAdded",
      "type": "event"
    },
    {
      "anonymous": false,
      "inputs": [
        {
          "indexed": true,
          "internalType": "string",
          "name": "patentNumber",
          "type": "string"
        },
        {
          "indexed": true,
          "internalType": "string",
          "name": "category",
          "type": "string"
        }
      ],
      "name": "PatentCategorized",
      "type": "event"
    },
    {
      "anonymous": false,
      "inputs": [
        {
          "indexed": true,
          "internalType": "string",
          "name": "category",
          "type": "string"
        }
      ],
      "name": "PatentCategoryAdded",
      "type": "event"
    },
    {
      "anonymous": false,
      "inputs": [
        {
          "indexed": true,
          "internalType": "address",
          "name": "oldContract",
          "type": "address"
        },
        {
          "indexed": true,
          "internalType": "address",
          "name": "newContract",
          "type": "address"
        }
      ],
      "name": "PatentCoinContractUpdated",
      "type": "event"
    },
    {
      "anonymous": false,
      "inputs": [
        {
          "indexed": true,
          "internalType": "string",
          "name": "patentNumber",
          "type": "string"
        }
      ],
      "name": "PatentRemoved",
      "type": "event"
    },
    {
      "anonymous": false,
      "inputs": [
        {
          "indexed": true,
          "internalType": "string",
          "name": "patentNumber",
          "type": "string"
        },
        {
          "indexed": false,
          "internalType": "uint256",
          "name": "newValuation",
          "type": "uint256"
        },
        {
          "indexed": false,
          "internalType": "uint256",
          "name": "newWeight",
          "type": "uint256"
        }
      ],
      "name": "PatentUpdated",
      "type": "event"
    },
    {
      "anonymous": false,
      "inputs": [
        {
          "indexed": true,
          "internalType": "bytes32",
          "name": "role",
          "type": "bytes32"
        },
        {
          "indexed": true,
          "internalType": "bytes32",
          "name": "previousAdminRole",
          "type": "bytes32"
        },
        {
          "indexed": true,
          "internalType": "bytes32",
          "name": "newAdminRole",
          "type": "bytes32"
        }
      ],
      "name": "RoleAdminChanged",
      "type": "event"
    },
    {
      "anonymous": false,
      "inputs": [
        {
          "indexed": true,
          "internalType": "bytes32",
          "name": "role",
          "type": "bytes32"
        },
        {
          "indexed": true,
          "internalType": "address",
          "name": "account",
          "type": "address"
        },
        {
          "indexed": true,
          "internalType": "address",
          "name": "sender",
          "type": "address"
        }
      ],
      "name": "RoleGranted",
      "type": "event"
    },
    {
      "anonymous": false,
      "inputs": [
        {
          "indexed": true,
          "internalType": "bytes32",
          "name": "role",
          "type": "bytes32"
        },
        {
          "indexed": true,
          "internalType": "address",
          "name": "account",
          "type": "address"
        },
        {
          "indexed": true,
          "internalType": "address",
          "name": "sender",
          "type": "address"
        }
      ],
      "name": "RoleRevoked",
      "type": "event"
    },
    {
      "inputs": [],
      "name": "BLACKLISTER_ROLE",
      "outputs": [
        {
          "internalType": "bytes32",
          "name": "",
          "type": "bytes32"
        }
      ],
      "stateMutability": "view",
      "type": "function"
    },
    {
      "inputs": [],
      "name": "BURNER_ROLE",
      "outputs": [
        {
          "internalType": "bytes32",
          "name": "",
          "type": "bytes32"
        }
      ],
      "stateMutability": "view",
      "type": "function"
    },
    {
      "inputs": [],
      "name": "DEFAULT_ADMIN_ROLE",
      "outputs": [
        {
          "internalType": "bytes32",
          "name": "",
          "type": "bytes32"
        }
      ],
      "stateMutability": "view",
      "type": "function"
    },
    {
      "inputs": [],
      "name": "FREEZER_ROLE",
      "outputs": [
        {
          "internalType": "bytes32",
          "name": "",
          "type": "bytes32"
        }
      ],
      "stateMutability": "view",
      "type": "function"
    },
    {
      "inputs": [],
      "name": "MINTER_ROLE",
      "outputs": [
        {
          "internalType": "bytes32",
          "name": "",
          "type": "bytes32"
        }
      ],
      "stateMutability": "view",
      "type": "function"
    },
    {
      "inputs": [],
      "name": "PATENT_MANAGER_ROLE",
      "outputs": [
        {
          "internalType": "bytes32",
          "name": "",
          "type": "bytes32"
        }
      ],
      "stateMutability": "view",
      "type": "function"
    },
    {
      "inputs": [],
      "name": "PAUSER_ROLE",
      "outputs": [
        {
          "internalType": "bytes32",
          "name": "",
          "type": "bytes32"
        }
      ],
      "stateMutability": "view",
      "type": "function"
    },
    {
      "inputs": [],
      "name": "REDEMPTION_PROCESSOR_ROLE",
      "outputs": [
        {
          "internalType": "bytes32",
          "name": "",
          "type": "bytes32"
        }
      ],
      "stateMutability": "view",
      "type": "function"
    },
    {
      "inputs": [],
      "name": "RESERVE_MANAGER_ROLE",
      "outputs": [
        {
          "internalType": "bytes32",
          "name": "",
          "type": "bytes32"
        }
      ],
      "stateMutability": "view",
      "type": "function"
    },
    {
      "inputs": [],
      "name": "RESUME_ROLE",
      "outputs": [
        {
          "internalType": "bytes32",
          "name": "",
          "type": "bytes32"
        }
      ],
      "stateMutability": "view",
      "type": "function"
    },
    {
      "inputs": [],
      "name": "REVENUE_MANAGER_ROLE",
      "outputs": [
        {
          "internalType": "bytes32",
          "name": "",
          "type": "bytes32"
        }
      ],
      "stateMutability": "view",
      "type": "function"
    },
    {
      "inputs": [],
      "name": "UPGRADER_ROLE",
      "outputs": [
        {
          "internalType": "bytes32",
          "name": "",
          "type": "bytes32"
        }
      ],
      "stateMutability": "view",
      "type": "function"
    },
    {
      "inputs": [],
      "name": "WHITELISTER_ROLE",
      "outputs": [
        {
          "internalType": "bytes32",
          "name": "",
          "type": "bytes32"
        }
      ],
      "stateMutability": "view",
      "type": "function"
    },
    {
      "inputs": [
        {
          "internalType": "string",
          "name": "patentNumber",
          "type": "string"
        },
        {
          "internalType": "string",
          "name": "title",
          "type": "string"
        },
        {
          "internalType": "string[]",
          "name": "inventors",
          "type": "string[]"
        },
        {
          "internalType": "uint256",
          "name": "valuationUSD",
          "type": "uint256"
        },
        {
          "internalType": "uint256",
          "name": "weight",
          "type": "uint256"
        },
        {
          "internalType": "string",
          "name": "ipfsMetadata",
          "type": "string"
        }
      ],
      "name": "addPatent",
      "outputs": [],
      "stateMutability": "nonpayable",
      "type": "function"
    },
    {
      "inputs": [
        {
          "internalType": "string",
          "name": "category",
          "type": "string"
        }
      ],
      "name": "addPatentCategory",
      "outputs": [],
      "stateMutability": "nonpayable",
      "type": "function"
    },
    {
      "inputs": [
        {
          "internalType": "address",
          "name": "",
          "type": "address"
        }
      ],
      "name": "authorizedMultisigs",
      "outputs": [
        {
          "internalType": "bool",
          "name": "",
          "type": "bool"
        }
      ],
      "stateMutability": "view",
      "type": "function"
    },
    {
      "inputs": [
        {
          "internalType": "address[]",
          "name": "multisigs",
          "type": "address[]"
        },
        {
          "internalType": "bool[]",
          "name": "authorizations",
          "type": "bool[]"
        }
      ],
      "name": "batchSetMultisigAuthorization",
      "outputs": [],
      "stateMutability": "nonpayable",
      "type": "function"
    },
    {
      "inputs": [
        {
          "internalType": "uint256",
          "name": "",
          "type": "uint256"
        }
      ],
      "name": "categories",
      "outputs": [
        {
          "internalType": "string",
          "name": "",
          "type": "string"
        }
      ],
      "stateMutability": "view",
      "type": "function"
    },
    {
      "inputs": [
        {
          "internalType": "string",
          "name": "patentNumber",
          "type": "string"
        },
        {
          "internalType": "string",
          "name": "category",
          "type": "string"
        }
      ],
      "name": "categorizePatent",
      "outputs": [],
      "stateMutability": "nonpayable",
      "type": "function"
    },
    {
      "inputs": [
        {
          "internalType": "string",
          "name": "",
          "type": "string"
        }
      ],
      "name": "categoryValuation",
      "outputs": [
        {
          "internalType": "uint256",
          "name": "",
          "type": "uint256"
        }
      ],
      "stateMutability": "view",
      "type": "function"
    },
    {
      "inputs": [],
      "name": "getCategories",
      "outputs": [
        {
          "internalType": "string[]",
          "name": "",
          "type": "string[]"
        }
      ],
      "stateMutability": "view",
      "type": "function"
    },
    {
      "inputs": [
        {
          "internalType": "string",
          "name": "category",
          "type": "string"
        }
      ],
      "name": "getCategoryValuation",
      "outputs": [
        {
          "internalType": "uint256",
          "name": "",
          "type": "uint256"
        }
      ],
      "stateMutability": "view",
      "type": "function"
    },
    {
      "inputs": [
        {
          "internalType": "string",
          "name": "patentNumber",
          "type": "string"
        }
      ],
      "name": "getPatent",
      "outputs": [
        {
          "components": [
            {
              "internalType": "string",
              "name": "patentNumber",
              "type": "string"
            },
            {
              "internalType": "string",
              "name": "title",
              "type": "string"
            },
            {
              "internalType": "string[]",
              "name": "inventors",
              "type": "string[]"
            },
            {
              "internalType": "uint256",
              "name": "valuationUSD",
              "type": "uint256"
            },
            {
              "internalType": "uint256",
              "name": "weight",
              "type": "uint256"
            },
            {
              "internalType": "bool",
              "name": "active",
              "type": "bool"
            },
            {
              "internalType": "uint256",
              "name": "addedTimestamp",
              "type": "uint256"
            },
            {
              "internalType": "string",
              "name": "ipfsMetadata",
              "type": "string"
            }
          ],
          "internalType": "struct IPatentAssetManager.PatentAsset",
          "name": "",
          "type": "tuple"
        }
      ],
      "stateMutability": "view",
      "type": "function"
    },
    {
      "inputs": [
        {
          "internalType": "string",
          "name": "patentNumber",
          "type": "string"
        }
      ],
      "name": "getPatentCategory",
      "outputs": [
        {
          "internalType": "string",
          "name": "",
          "type": "string"
        }
      ],
      "stateMutability": "view",
      "type": "function"
    },
    {
      "inputs": [],
      "name": "getPatentCount",
      "outputs": [
        {
          "internalType": "uint256",
          "name": "",
          "type": "uint256"
        }
      ],
      "stateMutability": "view",
      "type": "function"
    },
    {
      "inputs": [
        {
          "internalType": "string",
          "name": "patentNumber",
          "type": "string"
        }
      ],
      "name": "getPatentValuationHistory",
      "outputs": [
        {
          "components": [
            {
              "internalType": "uint256",
              "name": "oldValuation",
              "type": "uint256"
            },
            {
              "internalType": "uint256",
              "name": "newValuation",
              "type": "uint256"
            },
            {
              "internalType": "uint256",
              "name": "timestamp",
              "type": "uint256"
            },
            {
              "internalType": "address",
              "name": "updater",
              "type": "address"
            }
          ],
          "internalType": "struct PatentAssetManager.PatentValuationHistory[]",
          "name": "",
          "type": "tuple[]"
        }
      ],
      "stateMutability": "view",
      "type": "function"
    },
    {
      "inputs": [
        {
          "internalType": "uint256",
          "name": "offset",
          "type": "uint256"
        },
        {
          "internalType": "uint256",
          "name": "limit",
          "type": "uint256"
        }
      ],
      "name": "getPatentsPaginated",
      "outputs": [
        {
          "internalType": "string[]",
          "name": "paginatedPatents",
          "type": "string[]"
        }
      ],
      "stateMutability": "view",
      "type": "function"
    },
    {
      "inputs": [
        {
          "internalType": "bytes32",
          "name": "role",
          "type": "bytes32"
        }
      ],
      "name": "getRoleAdmin",
      "outputs": [
        {
          "internalType": "bytes32",
          "name": "",
          "type": "bytes32"
        }
      ],
      "stateMutability": "view",
      "type": "function"
    },
    {
      "inputs": [
        {
          "internalType": "bytes32",
          "name": "role",
          "type": "bytes32"
        },
        {
          "internalType": "uint256",
          "name": "index",
          "type": "uint256"
        }
      ],
      "name": "getRoleMember",
      "outputs": [
        {
          "internalType": "address",
          "name": "",
          "type": "address"
        }
      ],
      "stateMutability": "view",
      "type": "function"
    },
    {
      "inputs": [
        {
          "internalType": "bytes32",
          "name": "role",
          "type": "bytes32"
        }
      ],
      "name": "getRoleMemberCount",
      "outputs": [
        {
          "internalType": "uint256",
          "name": "",
          "type": "uint256"
        }
      ],
      "stateMutability": "view",
      "type": "function"
    },
    {
      "inputs": [],
      "name": "getTotalPatentValuation",
      "outputs": [
        {
          "internalType": "uint256",
          "name": "",
          "type": "uint256"
        }
      ],
      "stateMutability": "view",
      "type": "function"
    },
    {
      "inputs": [
        {
          "internalType": "bytes32",
          "name": "role",
          "type": "bytes32"
        },
        {
          "internalType": "address",
          "name": "account",
          "type": "address"
        }
      ],
      "name": "grantRole",
      "outputs": [],
      "stateMutability": "nonpayable",
      "type": "function"
    },
    {
      "inputs": [
        {
          "internalType": "bytes32",
          "name": "role",
          "type": "bytes32"
        },
        {
          "internalType": "address",
          "name": "account",
          "type": "address"
        }
      ],
      "name": "hasRole",
      "outputs": [
        {
          "internalType": "bool",
          "name": "",
          "type": "bool"
        }
      ],
      "stateMutability": "view",
      "type": "function"
    },
    {
      "inputs": [
        {
          "internalType": "address",
          "name": "_patentCoinContract",
          "type": "address"
        },
        {
          "internalType": "address",
          "name": "admin",
          "type": "address"
        }
      ],
      "name": "initialize",
      "outputs": [],
      "stateMutability": "nonpayable",
      "type": "function"
    },
    {
      "inputs": [
        {
          "internalType": "address",
          "name": "wallet",
          "type": "address"
        }
      ],
      "name": "isAuthorizedMultisig",
      "outputs": [
        {
          "internalType": "bool",
          "name": "",
          "type": "bool"
        }
      ],
      "stateMutability": "view",
      "type": "function"
    },
    {
      "inputs": [],
      "name": "moduleVersion",
      "outputs": [
        {
          "internalType": "string",
          "name": "",
          "type": "string"
        }
      ],
      "stateMutability": "pure",
      "type": "function"
    },
    {
      "inputs": [
        {
          "internalType": "string",
          "name": "",
          "type": "string"
        }
      ],
      "name": "patentCategories",
      "outputs": [
        {
          "internalType": "string",
          "name": "",
          "type": "string"
        }
      ],
      "stateMutability": "view",
      "type": "function"
    },
    {
      "inputs": [],
      "name": "patentCoinContract",
      "outputs": [
        {
          "internalType": "address",
          "name": "",
          "type": "address"
        }
      ],
      "stateMutability": "view",
      "type": "function"
    },
    {
      "inputs": [
        {
          "internalType": "uint256",
          "name": "",
          "type": "uint256"
        }
      ],
      "name": "patentNumbers",
      "outputs": [
        {
          "internalType": "string",
          "name": "",
          "type": "string"
        }
      ],
      "stateMutability": "view",
      "type": "function"
    },
    {
      "inputs": [
        {
          "internalType": "string",
          "name": "",
          "type": "string"
        },
        {
          "internalType": "uint256",
          "name": "",
          "type": "uint256"
        }
      ],
      "name": "patentValuationHistory",
      "outputs": [
        {
          "internalType": "uint256",
          "name": "oldValuation",
          "type": "uint256"
        },
        {
          "internalType": "uint256",
          "name": "newValuation",
          "type": "uint256"
        },
        {
          "internalType": "uint256",
          "name": "timestamp",
          "type": "uint256"
        },
        {
          "internalType": "address",
          "name": "updater",
          "type": "address"
        }
      ],
      "stateMutability": "view",
      "type": "function"
    },
    {
      "inputs": [
        {
          "internalType": "string",
          "name": "",
          "type": "string"
        }
      ],
      "name": "patents",
      "outputs": [
        {
          "internalType": "string",
          "name": "patentNumber",
          "type": "string"
        },
        {
          "internalType": "string",
          "name": "title",
          "type": "string"
        },
        {
          "internalType": "uint256",
          "name": "valuationUSD",
          "type": "uint256"
        },
        {
          "internalType": "uint256",
          "name": "weight",
          "type": "uint256"
        },
        {
          "internalType": "bool",
          "name": "active",
          "type": "bool"
        },
        {
          "internalType": "uint256",
          "name": "addedTimestamp",
          "type": "uint256"
        },
        {
          "internalType": "string",
          "name": "ipfsMetadata",
          "type": "string"
        }
      ],
      "stateMutability": "view",
      "type": "function"
    },
    {
      "inputs": [
        {
          "internalType": "string",
          "name": "patentNumber",
          "type": "string"
        }
      ],
      "name": "removePatent",
      "outputs": [],
      "stateMutability": "nonpayable",
      "type": "function"
    },
    {
      "inputs": [
        {
          "internalType": "bytes32",
          "name": "role",
          "type": "bytes32"
        },
        {
          "internalType": "address",
          "name": "account",
          "type": "address"
        }
      ],
      "name": "renounceRole",
      "outputs": [],
      "stateMutability": "nonpayable",
      "type": "function"
    },
    {
      "inputs": [
        {
          "internalType": "bytes32",
          "name": "role",
          "type": "bytes32"
        },
        {
          "internalType": "address",
          "name": "account",
          "type": "address"
        }
      ],
      "name": "revokeRole",
      "outputs": [],
      "stateMutability": "nonpayable",
      "type": "function"
    },
    {
      "inputs": [
        {
          "internalType": "address",
          "name": "multisig",
          "type": "address"
        },
        {
          "internalType": "bool",
          "name": "authorized",
          "type": "bool"
        }
      ],
      "name": "setMultisigAuthorization",
      "outputs": [],
      "stateMutability": "nonpayable",
      "type": "function"
    },
    {
      "inputs": [
        {
          "internalType": "address",
          "name": "_patentCoinContract",
          "type": "address"
        }
      ],
      "name": "setPatentCoinContract",
      "outputs": [],
      "stateMutability": "nonpayable",
      "type": "function"
    },
    {
      "inputs": [
        {
          "internalType": "bytes4",
          "name": "interfaceId",
          "type": "bytes4"
        }
      ],
      "name": "supportsInterface",
      "outputs": [
        {
          "internalType": "bool",
          "name": "",
          "type": "bool"
        }
      ],
      "stateMutability": "view",
      "type": "function"
    },
    {
      "inputs": [],
      "name": "totalPatentValuation",
      "outputs": [
        {
          "internalType": "uint256",
          "name": "",
          "type": "uint256"
        }
      ],
      "stateMutability": "view",
      "type": "function"
    },
    {
      "inputs": [
        {
          "internalType": "string",
          "name": "patentNumber",
          "type": "string"
        },
        {
          "internalType": "uint256",
          "name": "newValuationUSD",
          "type": "uint256"
        },
        {
          "internalType": "uint256",
          "name": "newWeight",
          "type": "uint256"
        }
      ],
      "name": "updatePatentValuation",
      "outputs": [],
      "stateMutability": "nonpayable",
      "type": "function"
    }
  ],
  "bytecode": "0x6080806040523461001657613395908161001c8239f35b600080fdfe6080604052600436101561001257600080fd5b60e0600035811c908162d0088c1461233d57816301ffc9a7146122cd57816306a85f0f1461229257816314004bb01461226957816318fb6552146120e5578163212350921461177e578163248a9ca3146120b6578163282c51f31461207b5781632de03aa1146120405781632f2ff15d14611f79578163327e955814611e2e57816334a717a714611cb157816336568abe14611c1f5781633c6e680214611b7e57816340c47bb214611aea578163485cc955146118675781634db0412c146117c8578163559407b11461177e578163570618e11461174357816360e65dae14610fed57816360f3fe06146117255781636682fad914611523578163720f7b1a146110485781637e6b947a146114e857816384d3f35c146112175781638f9f6029146110fa5781639010d07c146110b357816391d14854146110665781639b0cd98814611048578163a217fddf1461102c578163a3497ee714610fed578163ab08572b14610797578163ba8df78514610efd578163baa3b4d714610e8d578163bce1726114610e60578163c5f8725714610e25578163c6cdbe5e14610df1578163ca15c87314610dc5578163cf48fc6e14610b1e578163d539139314610ae3578163d547741f14610aa2578163de19716114610a67578163e63ab1e914610a2c578163ec855f481461081e578163ee57965714610797578163f515e6f21461075c578163f72c0d8b14610721578163fbc5408414610267575063fdf6ed001461023957600080fd5b346102625760003660031901126102625760fb546040516001600160a01b039091168152602090f35b600080fd5b346102625760c0366003190112610262576001600160401b0360043581811161026257610298903690600401612456565b91602435828111610262576102b1903690600401612456565b916044359080821161026257366023830112156102625781600401356102d681612723565b926102e46040519485612435565b8184526024602085019260051b820101913683116102625760248201905b8382106106f9575050505060a43590811161026257610325903690600401612456565b3360009081527f489431f353a37ddc009844a92372e77b791e3615f563e2e1d54358dfa710401460205260409020549091906103639060ff16612ed1565b3360005260fc60205261037d60ff60406000205416612f34565b6103d160405161038c8161241a565b602981527f506174656e7441737365744d616e616765723a20696e76616c69642070617465602082015268373a10373ab6b132b960b91b604082015286511515613185565b60ff6005604051602081816103ec8b838151938492016124ac565b810160fd8152030190200154166106a257610412610408612f96565b6064351515613185565b6040519161041f836123fe565b858352602083019485526040830191825260643560608401526084356080840152600160a08401524260c08401528383015261048960405160208188516104698183858d016124ac565b810160fd8152030190209461047f84518761303b565b516001860161303b565b51805190600160401b82116105f6576002850154826002870155808310610629575b506020016002850160005260206000206000915b83831061060c57876105158860078989606081015160038501556080810151600485015561050260a08201511515600586019060ff801983541691151516179055565b60c081015160068501550151910161303b565b60fe54600160401b8110156105f657806001610534920160fe556126b9565b9190916105e057610548816105ab9361303b565b61055660643560ff54612ac8565b60ff556105a6604051602081845161057181838589016124ac565b810161010381520301902060405190610589826123e3565b600082526064356020830152426040830152336060830152613102565b613165565b7fea63ee4d0dce40cfade21f5b7222920656aa7f8b066f3bbdc15ed5b99f4fa68d6040805160643581526084356020820152a2005b634e487b7160e01b600052600060045260246000fd5b634e487b7160e01b600052604160045260246000fd5b600160208261061d8394518661303b565b019201920191906104bf565b600286016000526020600020908382015b818301811061064a5750506104ab565b80610657600192546125b2565b80610664575b500161063a565b601f90818111841461067d575050600081555b8a61065d565b61069960009284845260208420920160051c8201858301612fdd565b81835555610677565b60405162461bcd60e51b815260206004820152602960248201527f506174656e7441737365744d616e616765723a20706174656e7420616c72656160448201526864792065786973747360b81b6064820152608490fd5b813585811161026257602091610716839260243691880101612456565b815201910190610302565b346102625760003660031901126102625760206040517f189ab7a9244df0848122154315af71fe140f3db0fe014031783b0946b8c9d2e38152f35b346102625760003660031901126102625760206040517f98db8a220cd0f09badce9f22d0ba7e93edb3d404448cc3560d391ab096ad16e98152f35b34610262576020366003190112610262576004356001600160401b038111610262576107ff6108066107e860206107d561081a953690600401612456565b81604051938285809451938492016124ac565b8101610100815203019020604051928380926125ec565b0382612435565b6040519182916020835260208301906124cf565b0390f35b346102625760208060031936011261026257600435906001600160401b038211610262576108a48161085585943690600401612456565b604051610861816123fe565b6060968188809352828582015282604082015260008382015260006080820152600060a0820152600060c0820152015281604051938285809451938492016124ac565b810160fd81520301902091604051926108bc846123fe565b6040516108cd816107ff81856125ec565b8452604051936001956108ed866108e6818a87016125ec565b0387612435565b8482019586526002830196875461090381612723565b986109116040519a8b612435565b818a526000908152878120888b015b838310610a09576109d06109ba61081a8e8e8e60078f8f8f8f604082019788526109e0600384015498828401998a526004850154926080850193845260ff6005870154169460a08101951515865261099560068801549760c0830198895261098e604051809c8193016125ec565b038a612435565b8781019889526040519e8f9e8f928c845251610100809d8501526101208401906124cf565b9b519b601f199c8d8483030160408501526124cf565b9251918b828503019101526124f4565b975160808b01525160a08a015251151560c08901525190870152519185840301908501526124cf565b848a8192604051610a1e816107ff81896125ec565b815201920192019190610920565b346102625760003660031901126102625760206040517f65d7a28e3265b37a6474929f336521b332c1681b933f6cb9f3376673440d862a8152f35b346102625760003660031901126102625760206040517f033f63ac7430e160807e6d11d8132bd60aa62d493fbd27108f22183c218dac838152f35b3461026257604036600319011261026257610ae1600435610ac16123cd565b90806000526065602052610adc600160406000200154612934565b612a3f565b005b346102625760003660031901126102625760206040517f9f2df0fed2c77648de5860a4cc508cd0818c85b8b8a1ab4ceeef8d981c8956a68152f35b3461026257602080600319360112610262576004356001600160401b03811161026257610b4f903690600401612456565b90600080516020613340833981519152600052606581526040600020336000528152610b8260ff60406000205416612ed1565b3360005260fc8152610b9b60ff60406000205416612f34565b60405191805191610bcf60ff82840194610bb68188886124ac565b860160fd815286846005988993030190200154166131b1565b8360405182818551610be281838a6124ac565b810160fd81520301902060038101610bfd815460ff54612c69565b60ff556107ff610c1a6040518681806107e88c8c519283916124ac565b8481519283610d8e575b5050505001805460ff1916905560005b60fe805480831015610d7e576107ff610c5c610c4f856126b9565b50604051928380926125ec565b8481519101208551872014610c7b575050610c7690612e31565b610c34565b93945091926000199190828101908111610d6857610c9b610ca2916126b9565b50916126b9565b9190916105e057610cb291613209565b81548015610d52570191610cc5836126b9565b6105e057610ce895610cd782546125b2565b9081610d0f575b5050505055613165565b7f8578a4a79362a0e20c7ce312d593a70cf460fa37bf824824b92a2de06e1c4f16600080a2005b600093601f90818411600114610d2e5750505050555b84808080610cde565b91610d4b918593879596865285209501901c840160018501612fdd565b5555610d25565b634e487b7160e01b600052603160045260246000fd5b634e487b7160e01b600052601160045260246000fd5b505050509050610ce89150613165565b610dba9282915494610da78160405180968195016124ac565b8101610101815203019020918254612c69565b905586808481610c24565b346102625760203660031901126102625760043560005260976020526020604060002054604051908152f35b34610262576020366003190112610262576004356101025481101561026257610806610e1f61081a92612682565b90612708565b346102625760003660031901126102625760206040517fcc938097bd07c9f1619d5e95c26b457140e80b889795c7c1cbd51a28005e02ac8152f35b346102625760203660031901126102625760043560fe5481101561026257610806610e1f61081a926126b9565b346102625760003660031901126102625760405160408101908082106001600160401b038311176105f65761081a91604052601881527f312e302e302d506174656e7441737365744d616e61676572000000000000000060208201526040519182916020835260208301906124cf565b34610262576020366003190112610262576004356001600160401b0381116102625760206107d5610f32923690600401612456565b810160fd8152030190209061081a60405192610f5984610f5281846125ec565b0385612435565b600760405191610f7783610f7081600185016125ec565b0384612435565b6003810154926004820154610fc960ff60058501541692610fa76006860154956108e660405180998193016125ec565b610fbb6040519a8a8c9b8c528b01906124cf565b9089820360208b01526124cf565b94604088015260608701521515608086015260a085015283820360c08501526124cf565b34610262576020366003190112610262576001600160a01b0361100e6123b7565b1660005260fc602052602060ff604060002054166040519015158152f35b3461026257600036600319011261026257602060405160008152f35b3461026257600036600319011261026257602060ff54604051908152f35b346102625760403660031901126102625761107f6123cd565b600435600052606560205260406000209060018060a01b0316600052602052602060ff604060002054166040519015158152f35b3461026257604036600319011261026257600435600052609760205260206110e160243560406000206126f0565b905460405160039290921b1c6001600160a01b03168152f35b3461026257602080600319360112610262576004356001600160401b03811161026257816107d561112f923690600401612456565b810161010381520301902090815461114681612723565b906111546040519283612435565b8082528282018094600052836000206000915b8383106111d05760408051878152865181890181905289928201908960005b8281106111935784840385f35b8551805185528083015185840152604080820151908601526060908101516001600160a01b03169085015294810194608090930192600101611186565b6004866001926040516111e2816123e3565b85548152848601548382015260028601546040820152848060a01b036003870154166060820152815201920192019190611167565b34610262576040366003190112610262576001600160401b0360043581811161026257611248903690600401612456565b9060243590811161026257611261903690600401612456565b3360009081527f489431f353a37ddc009844a92372e77b791e3615f563e2e1d54358dfa710401460209081526040909120549192916112a29060ff16612ed1565b3360005260fc81526112bb60ff60406000205416612f34565b604051906112ec60ff60058551948481818901976112da81838b6124ac565b810160fd8152030190200154166131b1565b6113006112f76132e5565b85511515613185565b60009160009261010254838701945b8181106114b0575b50501561145757916113d96113c68360036113a86113e698966113e0986113978c6040516107ff61136a8d5161134e8185896124ac565b83019287816101009586815203019020604051928380926125ec565b8c8587835161140e575b9250506040519283915161138981848a6124ac565b82019081520301902061303b565b604051809381928b519283916124ac565b810160fd815203019020015493604051809381928b519283916124ac565b8101610101815203019020918254612ac8565b9055613165565b91613165565b907f369d126b94cdc72a36f33f646ba92617714013fd8860a51b3b126eb00f01a200600080a3005b8a61142c82610da79461144c966040519384928392519283916124ac565b810160fd81520301902001549381604051938285809451938492016124ac565b90558f8c8587611374565b60405162461bcd60e51b815260048101839052602b60248201527f506174656e7441737365744d616e616765723a2063617465676f727920646f6560448201526a1cc81b9bdd08195e1a5cdd60aa1b6064820152608490fd5b6107ff6114bf610c4f83612682565b85815191012088518720146114dc576114d790612e31565b61130f565b50505060018680611317565b346102625760003660031901126102625760206040517fe4b53607f0d5db686eea4c2568602f38f9a0a31883c6efb58ff2d132f39dd1af8152f35b34610262576060366003190112610262576004356001600160401b03811161026257611553903690600401612456565b6000805160206133408339815191526000527fcfb7167bac36fd12d42ce397df9c32d73af717038059b325b5746ee75b85486e604060209260658452816000203360005284526115a960ff836000205416612ed1565b3360005260fc84526115c160ff836000205416612f34565b60046116c08351926115e460ff60058351968a81818701996112da81838d6124ac565b6105a66115ef612f96565b946115ff60243596871515613185565b611692898851818187516116148183896124ac565b810160fd8152030190209260038401938985549561163d826116388960ff54612c69565b612ac8565b60ff556107ff61166d8e5187818d5161165781838c6124ac565b81016101008152030190208f51928380926125ec565b805186816116cc575b50505055604435988991015589518093819288519283916124ac565b81016101038152030190208751916116a9836123e3565b8252868a8301524288830152336060830152613102565b948351928352820152a2005b8f918a61170187611638611713965193868901956116eb8187896124ac565b8501948781610101978881520301902054612c69565b946040519485938492519283916124ac565b820190815203019020558f8086611676565b3461026257600036600319011261026257602060fe54604051908152f35b346102625760003660031901126102625760206040517f8619cecd8b9e095ab43867f5b69d492180450fe862e6b50bfbfb24b75dd84c8a8152f35b34610262576020366003190112610262576004356001600160401b038111610262576117b460206107d581933690600401612456565b810161010181520301902054604051908152f35b34610262576000366003190112610262576101028054906117e882612723565b916117f66040519384612435565b80835260009182526020917f93bdaa6a4190909b7c3fbe8d42169ffe1cab19f51dfc8db24c71abf849eced4a838086015b848410611841576040518281528061081a8185018a6124f4565b6001918291604051611857816107ff81896125ec565b8152019201920191908490611827565b34610262576040366003190112610262576118806123b7565b6118886123cd565b906000549160ff8360081c161591828093611add575b8015611ac6575b15611a6a5760ff198481166001176000559383611a58575b506118ea60ff60005460081c166118d381612e71565b6118dc81612e71565b6118e581612e71565b612e71565b600160c9556001600160a01b0390811691611906831515612d66565b168015611a025760fb80546001600160a01b03191690921790915560008181527fffdfc1249c027f9191656349feb0761381bb32c9f557e01f419fd08754bf5a1b60209081526040909120549093611975929160ff16156119b3575b5060008052609784526040600020612be4565b5061197c57005b7f7f26b83ff96e1f2b6a682f133852f6798a09c465da95921460cefb38474024989061ff00196000541660005560405160018152a1005b600080526065855260406000208260005285526001604060002091825416179055338160007f2f8788117e7eff1d82e926ec794901d17c78024a50270940304540a733656f0d8180a484611962565b60405162461bcd60e51b815260206004820152602860248201527f426173654d6f64756c653a2061646d696e2063616e6e6f74206265207a65726f604482015267206164647265737360c01b6064820152608490fd5b61ffff191661010117600055846118bd565b60405162461bcd60e51b815260206004820152602e60248201527f496e697469616c697a61626c653a20636f6e747261637420697320616c72656160448201526d191e481a5b9a5d1a585b1a5e995960921b6064820152608490fd5b50303b1580156118a55750600160ff8516146118a5565b50600160ff85161061189e565b3461026257604036600319011261026257611b036123b7565b6024359081151590818303610262577f69bea48d4d07100e196a8ae9d84d86dc925fa6bba03d7bbb8d8cd3decc2069db91611b75602092611b4261273a565b6001600160a01b031694611b57861515612dd1565b8560005260fc845260406000209060ff801983541691151516179055565b604051908152a2005b34610262576040366003190112610262576004356001600160401b03811161026257611bae903690600401612456565b611bca60206024359281604051938285809451938492016124ac565b8101610103815203019020805482101561026257608091611bea91612580565b50805490600181015490600281015490600360018060a01b039101541691604051938452602084015260408301526060820152f35b3461026257604036600319011261026257611c386123cd565b336001600160a01b03821603611c5457610ae190600435612a3f565b60405162461bcd60e51b815260206004820152602f60248201527f416363657373436f6e74726f6c3a2063616e206f6e6c792072656e6f756e636560448201526e103937b632b9903337b91039b2b63360891b6064820152608490fd5b34610262576040366003190112610262576001600160401b0360043581811161026257611ce2903690600401612550565b909160243590811161026257611cfc903690600401612550565b9092611d0661273a565b818303611dde5760005b838110611d1957005b611dd9906001600160a01b03611d4481611d3c611d37858a89612e40565b612e50565b161515612dd1565b7f69bea48d4d07100e196a8ae9d84d86dc925fa6bba03d7bbb8d8cd3decc2069db611d78611d7384888b612e40565b612e64565b82611d87611d37868b8a612e40565b16600052611dab60209160fc835260406000209060ff801983541691151516179055565b611db9611d37858a89612e40565b92611dc8611d73868a8d612e40565b9360405194151585521692a2612e31565b611d10565b60405162461bcd60e51b815260206004820152602260248201527f426173654d6f64756c653a20617272617973206c656e677468206d69736d61746044820152610c6d60f31b6064820152608490fd5b346102625760403660031901126102625760043560fe5480821015611f2357611e5960243583612ac8565b90808211611f1b575b50611e6d8282612c69565b91611e7783612723565b92611e856040519485612435565b808452611e94601f1991612723565b0160005b818110611f0a575050805b828110611ec0576040516020808252819061081a908201876124f4565b80611eff611ed0611f05936126b9565b506107ff611eee611ee18786612c69565b92604051928380926125ec565b611ef8828961332b565b528661332b565b50612e31565b611ea3565b806060602080938801015201611e98565b905082611e62565b60405162461bcd60e51b815260206004820152602860248201527f506174656e7441737365744d616e616765723a206f6666736574206f7574206f6044820152676620626f756e647360c01b6064820152608490fd5b3461026257604036600319011261026257610ae16004356097611f9a6123cd565b918060005260209060658252611fb7600160406000200154612934565b60008181526065835260408082206001600160a01b0390961680835295845290205460ff1615611ff0575b600052526040600020612be4565b806000526065825260406000208460005282526040600020600160ff198254161790553384827f2f8788117e7eff1d82e926ec794901d17c78024a50270940304540a733656f0d600080a4611fe2565b346102625760003660031901126102625760206040517f2fc10cc8ae19568712f7a176fb4978616a610650813c9d05326c34abb62749c78152f35b346102625760003660031901126102625760206040517f3c11d16cbaffd01df69ce1c404f6340ee057498f5f00246190ea54220576a8488152f35b346102625760203660031901126102625760043560005260656020526020600160406000200154604051908152f35b3461026257602080600319360112610262576004356001600160401b03811161026257612116903690600401612456565b9060008051602061334083398151915260005260658152604060002033600052815261214960ff60406000205416612ed1565b3360005260fc815261216260ff60406000205416612f34565b61217661216d6132e5565b83511515613185565b610102805490918381019060005b8381106121e457505050600160401b8110156105f6576121a991600182019055612682565b9190916105e0576105a6816121bd9361303b565b7f589cc2ac7db7431aba3c89e7b420bf35f982bfe6f61d2844cdaa8d8afa310944600080a2005b6107ff6121f3610c4f83612682565b82815191012086518420146122105761220b90612e31565b612184565b60405162461bcd60e51b815260048101839052602b60248201527f506174656e7441737365744d616e616765723a2063617465676f727920616c7260448201526a656164792065786973747360a81b6064820152608490fd5b346102625760003660031901126102625760206040516000805160206133408339815191528152f35b346102625760003660031901126102625760206040517f92de27771f92d6942691d73358b3a4673e4880de8356f8f2cf452be87e02d3638152f35b346102625760203660031901126102625760043563ffffffff60e01b811680910361026257602090635a05180f60e01b8114908115612312575b506040519015158152f35b637965db0b60e01b81149150811561232c575b5082612307565b6301ffc9a760e01b14905082612325565b34610262576020366003190112610262576123566123b7565b61235e61273a565b6001600160a01b0390811690612375821515612d66565b60fb54826bffffffffffffffffffffffff60a01b82161760fb55167fb88a224f84841b0b2043309fb32d4a093a4d2ee563d365b6559933e00e0c3bb9600080a3005b600435906001600160a01b038216820361026257565b602435906001600160a01b038216820361026257565b608081019081106001600160401b038211176105f657604052565b61010081019081106001600160401b038211176105f657604052565b606081019081106001600160401b038211176105f657604052565b90601f801991011681019081106001600160401b038211176105f657604052565b81601f82011215610262578035906001600160401b0382116105f6576040519261248a601f8401601f191660200185612435565b8284526020838301011161026257816000926020809301838601378301015290565b60005b8381106124bf5750506000910152565b81810151838201526020016124af565b906020916124e8815180928185528580860191016124ac565b601f01601f1916010190565b908082519081815260208091019281808460051b8301019501936000915b8483106125225750505050505090565b9091929394958480612540600193601f198682030187528a516124cf565b9801930193019194939290612512565b9181601f84011215610262578235916001600160401b038311610262576020808501948460051b01011161026257565b805482101561259c5760005260206000209060021b0190600090565b634e487b7160e01b600052603260045260246000fd5b90600182811c921680156125e2575b60208310146125cc57565b634e487b7160e01b600052602260045260246000fd5b91607f16916125c1565b90600092918054916125fd836125b2565b91828252600193848116908160001461265f575060011461261f575b50505050565b90919394506000526020928360002092846000945b83861061264b575050505001019038808080612619565b805485870183015294019385908201612634565b9294505050602093945060ff191683830152151560051b01019038808080612619565b610102805482101561259c576000527f93bdaa6a4190909b7c3fbe8d42169ffe1cab19f51dfc8db24c71abf849eced4a0190600090565b60fe5481101561259c5760fe6000527f54075df80ec1ae6ac9100e1fd0ebf3246c17f5c933137af392011f4c5f61513a0190600090565b805482101561259c5760005260206000200190600090565b906105e0576127206107ff91604051928380926125ec565b90565b6001600160401b0381116105f65760051b60200190565b3360009081527fffdfc1249c027f9191656349feb0761381bb32c9f557e01f419fd08754bf5a1b602090815260408083205490929060ff161561277c57505050565b61278533612ae6565b9080845190612793826123e3565b6042825284820192606036853782511561292057603084538251906001918210156129205790607860218501536041915b8183116128b25750505061287057604861286c93869361285093612841985198899376020b1b1b2b9b9a1b7b73a3937b61d1030b1b1b7bab73a1604d1b8a860152612818815180928c6037890191016124ac565b8401917001034b99036b4b9b9b4b733903937b6329607d1b6037840152518093868401906124ac565b01036028810187520185612435565b5192839262461bcd60e51b8452600484015260248301906124cf565b0390fd5b60648486519062461bcd60e51b825280600483015260248201527f537472696e67733a20686578206c656e67746820696e73756666696369656e746044820152fd5b909192600f8116601081101561290c576f181899199a1a9b1b9c1cb0b131b232b360811b901a6128e28587612ad5565b5360041c9280156128f8576000190191906127c4565b634e487b7160e01b82526011600452602482fd5b634e487b7160e01b83526032600452602483fd5b634e487b7160e01b81526032600452602490fd5b60009080825260209060658252604092838120338252835260ff84822054161561295e5750505050565b61296733612ae6565b91845190612974826123e3565b6042825284820192606036853782511561292057603084538251906001918210156129205790607860218501536041915b8183116129f95750505061287057604861286c93869361285093612841985198899376020b1b1b2b9b9a1b7b73a3937b61d1030b1b1b7bab73a1604d1b8a860152612818815180928c6037890191016124ac565b909192600f8116601081101561290c576f181899199a1a9b1b9c1cb0b131b232b360811b901a612a298587612ad5565b5360041c9280156128f8576000190191906129a5565b906040612a7d9260009080825260656020528282209360018060a01b03169384835260205260ff8383205416612a80575b8152609760205220612c76565b50565b808252606560205282822084835260205282822060ff1981541690553384827ff6391f5c32d9c69d2a47ea670b442974b53935d1edc7fd64eb21e047a839171b8580a4612a70565b91908201809211610d6857565b90815181101561259c570160200190565b60405190612af38261241a565b602a825260208201604036823782511561259c5760309053815160019081101561259c57607860218401536029905b808211612b76575050612b325790565b606460405162461bcd60e51b815260206004820152602060248201527f537472696e67733a20686578206c656e67746820696e73756666696369656e746044820152fd5b9091600f81166010811015612bcf576f181899199a1a9b1b9c1cb0b131b232b360811b901a612ba58486612ad5565b5360041c918015612bba576000190190612b22565b60246000634e487b7160e01b81526011600452fd5b60246000634e487b7160e01b81526032600452fd5b91906001830160009082825280602052604082205415600014612c6357845494600160401b861015612c4f5783612c3f612c28886001604098999a018555846126f0565b819391549060031b91821b91600019901b19161790565b9055549382526020522055600190565b634e487b7160e01b83526041600452602483fd5b50925050565b91908203918211610d6857565b90600182019060009281845282602052604084205490811515600014612d5f5760001991808301818111612d4b57825490848201918211612d3757808203612d02575b50505080548015612cee57820191612cd183836126f0565b909182549160031b1b191690555582526020526040812055600190565b634e487b7160e01b86526031600452602486fd5b612d22612d12612c2893866126f0565b90549060031b1c928392866126f0565b90558652846020526040862055388080612cb9565b634e487b7160e01b88526011600452602488fd5b634e487b7160e01b87526011600452602487fd5b5050505090565b15612d6d57565b60405162461bcd60e51b815260206004820152603660248201527f426173654d6f64756c653a20506174656e74436f696e20636f6e74726163742060448201527563616e6e6f74206265207a65726f206164647265737360501b6064820152608490fd5b15612dd857565b60405162461bcd60e51b815260206004820152602b60248201527f426173654d6f64756c653a206d756c74697369672063616e6e6f74206265207a60448201526a65726f206164647265737360a81b6064820152608490fd5b6000198114610d685760010190565b919081101561259c5760051b0190565b356001600160a01b03811681036102625790565b3580151581036102625790565b15612e7857565b60405162461bcd60e51b815260206004820152602b60248201527f496e697469616c697a61626c653a20636f6e7472616374206973206e6f74206960448201526a6e697469616c697a696e6760a81b6064820152608490fd5b15612ed857565b60405162461bcd60e51b815260206004820152602e60248201527f426173654d6f64756c653a2063616c6c657220646f6573206e6f74206861766560448201526d20726571756972656420726f6c6560901b6064820152608490fd5b15612f3b57565b60405162461bcd60e51b815260206004820152602d60248201527f426173654d6f64756c653a2063616c6c6572206973206e6f7420617574686f7260448201526c697a6564206d756c746973696760981b6064820152608490fd5b60405190612fa38261241a565b602582526430ba34b7b760d91b6040837f506174656e7441737365744d616e616765723a20696e76616c69642076616c7560208201520152565b818110612fe8575050565b60008155600101612fdd565b9190601f811161300357505050565b61302f926000526020600020906020601f840160051c83019310613031575b601f0160051c0190612fdd565b565b9091508190613022565b91909182516001600160401b0381116105f6576130628161305c84546125b2565b84612ff4565b602080601f831160011461309e575081929394600092613093575b50508160011b916000199060031b1c1916179055565b01519050388061307d565b90601f198316958460005282600020926000905b8882106130ea575050836001959697106130d1575b505050811b019055565b015160001960f88460031b161c191690553880806130c7565b806001859682949686015181550195019301906130b2565b8054600160401b8110156105f65761311f91600182018155612580565b6105e0576003908251815560208301516001820155604083015160028201550190606060018060a01b03910151166bffffffffffffffffffffffff60a01b825416179055565b61317d906020604051928284809451938492016124ac565b810103902090565b1561318d5750565b60405162461bcd60e51b81526020600482015290819061286c9060248301906124cf565b156131b857565b60405162461bcd60e51b8152602060048201526024808201527f506174656e7441737365744d616e616765723a20706174656e74206e6f7420666044820152631bdd5b9960e21b6064820152608490fd5b908082146132e15761321b81546125b2565b906001600160401b0382116105f65781906132408261323a86546125b2565b86612ff4565b600090601f83116001146132765760009261326b5750508160011b916000199060031b1c1916179055565b01549050388061307d565b81526020808220858352818320935090601f1985169083905b8282106132c85750509084600195949392106132af57505050811b019055565b015460001960f88460031b161c191690553880806130c7565b849581929585015481556001809101960194019061328f565b5050565b604051906132f28261241a565b6024825263676f727960e01b6040837f506174656e7441737365744d616e616765723a20696e76616c6964206361746560208201520152565b805182101561259c5760209160051b01019056fe4a04db7e5d3d49285a29b51f294130b264a381bcd66e3f4474bdec268790a58fa264697066735822122019797495699703c0643ce78856ac35a5fa23d0130b0231f008c3d0fada368aca64736f6c63430008130033",
  "linkReferences": {},
  "deployedLinkReferences": {}
}