{
  "_format": "hh-sol-artifact-1",
  "contractName": "PatentCoinModular",
  "sourceName": "contracts/PatentCoinModular.sol",
  "abi": [
    {
      "inputs": [],
      "stateMutability": "nonpayable",
      "type": "constructor"
    },
    {
      "anonymous": false,
      "inputs": [
        {
          "indexed": false,
          "internalType": "address",
          "name": "previousAdmin",
          "type": "address"
        },
        {
          "indexed": false,
          "internalType": "address",
          "name": "newAdmin",
          "type": "address"
        }
      ],
      "name": "AdminChanged",
      "type": "event"
    },
    {
      "anonymous": false,
      "inputs": [
        {
          "indexed": true,
          "internalType": "address",
          "name": "owner",
          "type": "address"
        },
        {
          "indexed": true,
          "internalType": "address",
          "name": "spender",
          "type": "address"
        },
        {
          "indexed": false,
          "internalType": "uint256",
          "name": "value",
          "type": "uint256"
        }
      ],
      "name": "Approval",
      "type": "event"
    },
    {
      "anonymous": false,
      "inputs": [
        {
          "indexed": true,
          "internalType": "address",
          "name": "beacon",
          "type": "address"
        }
      ],
      "name": "BeaconUpgraded",
      "type": "event"
    },
    {
      "anonymous": false,
      "inputs": [
        {
          "indexed": true,
          "internalType": "address",
          "name": "pauser",
          "type": "address"
        }
      ],
      "name": "ContractPaused",
      "type": "event"
    },
    {
      "anonymous": false,
      "inputs": [
        {
          "indexed": true,
          "internalType": "address",
          "name": "resumer",
          "type": "address"
        }
      ],
      "name": "ContractUnpaused",
      "type": "event"
    },
    {
      "anonymous": false,
      "inputs": [
        {
          "indexed": false,
          "internalType": "uint8",
          "name": "version",
          "type": "uint8"
        }
      ],
      "name": "Initialized",
      "type": "event"
    },
    {
      "anonymous": false,
      "inputs": [
        {
          "indexed": true,
          "internalType": "string",
          "name": "moduleName",
          "type": "string"
        },
        {
          "indexed": true,
          "internalType": "address",
          "name": "oldModule",
          "type": "address"
        },
        {
          "indexed": true,
          "internalType": "address",
          "name": "newModule",
          "type": "address"
        }
      ],
      "name": "ModuleUpdated",
      "type": "event"
    },
    {
      "anonymous": false,
      "inputs": [
        {
          "indexed": false,
          "internalType": "address",
          "name": "account",
          "type": "address"
        }
      ],
      "name": "Paused",
      "type": "event"
    },
    {
      "anonymous": false,
      "inputs": [
        {
          "indexed": true,
          "internalType": "bytes32",
          "name": "role",
          "type": "bytes32"
        },
        {
          "indexed": true,
          "internalType": "bytes32",
          "name": "previousAdminRole",
          "type": "bytes32"
        },
        {
          "indexed": true,
          "internalType": "bytes32",
          "name": "newAdminRole",
          "type": "bytes32"
        }
      ],
      "name": "RoleAdminChanged",
      "type": "event"
    },
    {
      "anonymous": false,
      "inputs": [
        {
          "indexed": true,
          "internalType": "bytes32",
          "name": "role",
          "type": "bytes32"
        },
        {
          "indexed": true,
          "internalType": "address",
          "name": "account",
          "type": "address"
        },
        {
          "indexed": true,
          "internalType": "address",
          "name": "sender",
          "type": "address"
        }
      ],
      "name": "RoleGranted",
      "type": "event"
    },
    {
      "anonymous": false,
      "inputs": [
        {
          "indexed": true,
          "internalType": "bytes32",
          "name": "role",
          "type": "bytes32"
        },
        {
          "indexed": true,
          "internalType": "address",
          "name": "account",
          "type": "address"
        },
        {
          "indexed": true,
          "internalType": "address",
          "name": "sender",
          "type": "address"
        }
      ],
      "name": "RoleRevoked",
      "type": "event"
    },
    {
      "anonymous": false,
      "inputs": [
        {
          "indexed": true,
          "internalType": "address",
          "name": "from",
          "type": "address"
        },
        {
          "indexed": false,
          "internalType": "uint256",
          "name": "amount",
          "type": "uint256"
        },
        {
          "indexed": true,
          "internalType": "address",
          "name": "burner",
          "type": "address"
        }
      ],
      "name": "TokensBurned",
      "type": "event"
    },
    {
      "anonymous": false,
      "inputs": [
        {
          "indexed": true,
          "internalType": "address",
          "name": "to",
          "type": "address"
        },
        {
          "indexed": false,
          "internalType": "uint256",
          "name": "amount",
          "type": "uint256"
        },
        {
          "indexed": true,
          "internalType": "address",
          "name": "minter",
          "type": "address"
        }
      ],
      "name": "TokensMinted",
      "type": "event"
    },
    {
      "anonymous": false,
      "inputs": [
        {
          "indexed": true,
          "internalType": "address",
          "name": "from",
          "type": "address"
        },
        {
          "indexed": true,
          "internalType": "address",
          "name": "to",
          "type": "address"
        },
        {
          "indexed": false,
          "internalType": "uint256",
          "name": "value",
          "type": "uint256"
        }
      ],
      "name": "Transfer",
      "type": "event"
    },
    {
      "anonymous": false,
      "inputs": [
        {
          "indexed": false,
          "internalType": "address",
          "name": "account",
          "type": "address"
        }
      ],
      "name": "Unpaused",
      "type": "event"
    },
    {
      "anonymous": false,
      "inputs": [
        {
          "indexed": true,
          "internalType": "address",
          "name": "implementation",
          "type": "address"
        }
      ],
      "name": "Upgraded",
      "type": "event"
    },
    {
      "inputs": [],
      "name": "BLACKLISTER_ROLE",
      "outputs": [
        {
          "internalType": "bytes32",
          "name": "",
          "type": "bytes32"
        }
      ],
      "stateMutability": "view",
      "type": "function"
    },
    {
      "inputs": [],
      "name": "BURNER_ROLE",
      "outputs": [
        {
          "internalType": "bytes32",
          "name": "",
          "type": "bytes32"
        }
      ],
      "stateMutability": "view",
      "type": "function"
    },
    {
      "inputs": [],
      "name": "DEFAULT_ADMIN_ROLE",
      "outputs": [
        {
          "internalType": "bytes32",
          "name": "",
          "type": "bytes32"
        }
      ],
      "stateMutability": "view",
      "type": "function"
    },
    {
      "inputs": [],
      "name": "FREEZER_ROLE",
      "outputs": [
        {
          "internalType": "bytes32",
          "name": "",
          "type": "bytes32"
        }
      ],
      "stateMutability": "view",
      "type": "function"
    },
    {
      "inputs": [],
      "name": "MINTER_ROLE",
      "outputs": [
        {
          "internalType": "bytes32",
          "name": "",
          "type": "bytes32"
        }
      ],
      "stateMutability": "view",
      "type": "function"
    },
    {
      "inputs": [],
      "name": "PATENT_MANAGER_ROLE",
      "outputs": [
        {
          "internalType": "bytes32",
          "name": "",
          "type": "bytes32"
        }
      ],
      "stateMutability": "view",
      "type": "function"
    },
    {
      "inputs": [],
      "name": "PAUSER_ROLE",
      "outputs": [
        {
          "internalType": "bytes32",
          "name": "",
          "type": "bytes32"
        }
      ],
      "stateMutability": "view",
      "type": "function"
    },
    {
      "inputs": [],
      "name": "REDEMPTION_PROCESSOR_ROLE",
      "outputs": [
        {
          "internalType": "bytes32",
          "name": "",
          "type": "bytes32"
        }
      ],
      "stateMutability": "view",
      "type": "function"
    },
    {
      "inputs": [],
      "name": "RESERVE_MANAGER_ROLE",
      "outputs": [
        {
          "internalType": "bytes32",
          "name": "",
          "type": "bytes32"
        }
      ],
      "stateMutability": "view",
      "type": "function"
    },
    {
      "inputs": [],
      "name": "RESUME_ROLE",
      "outputs": [
        {
          "internalType": "bytes32",
          "name": "",
          "type": "bytes32"
        }
      ],
      "stateMutability": "view",
      "type": "function"
    },
    {
      "inputs": [],
      "name": "REVENUE_MANAGER_ROLE",
      "outputs": [
        {
          "internalType": "bytes32",
          "name": "",
          "type": "bytes32"
        }
      ],
      "stateMutability": "view",
      "type": "function"
    },
    {
      "inputs": [],
      "name": "UPGRADER_ROLE",
      "outputs": [
        {
          "internalType": "bytes32",
          "name": "",
          "type": "bytes32"
        }
      ],
      "stateMutability": "view",
      "type": "function"
    },
    {
      "inputs": [],
      "name": "WHITELISTER_ROLE",
      "outputs": [
        {
          "internalType": "bytes32",
          "name": "",
          "type": "bytes32"
        }
      ],
      "stateMutability": "view",
      "type": "function"
    },
    {
      "inputs": [
        {
          "internalType": "address",
          "name": "owner",
          "type": "address"
        },
        {
          "internalType": "address",
          "name": "spender",
          "type": "address"
        }
      ],
      "name": "allowance",
      "outputs": [
        {
          "internalType": "uint256",
          "name": "",
          "type": "uint256"
        }
      ],
      "stateMutability": "view",
      "type": "function"
    },
    {
      "inputs": [
        {
          "internalType": "address",
          "name": "spender",
          "type": "address"
        },
        {
          "internalType": "uint256",
          "name": "amount",
          "type": "uint256"
        }
      ],
      "name": "approve",
      "outputs": [
        {
          "internalType": "bool",
          "name": "",
          "type": "bool"
        }
      ],
      "stateMutability": "nonpayable",
      "type": "function"
    },
    {
      "inputs": [],
      "name": "auditLogger",
      "outputs": [
        {
          "internalType": "contract AuditLogger",
          "name": "",
          "type": "address"
        }
      ],
      "stateMutability": "view",
      "type": "function"
    },
    {
      "inputs": [
        {
          "internalType": "address",
          "name": "account",
          "type": "address"
        }
      ],
      "name": "balanceOf",
      "outputs": [
        {
          "internalType": "uint256",
          "name": "",
          "type": "uint256"
        }
      ],
      "stateMutability": "view",
      "type": "function"
    },
    {
      "inputs": [
        {
          "internalType": "uint256",
          "name": "amount",
          "type": "uint256"
        }
      ],
      "name": "burn",
      "outputs": [],
      "stateMutability": "nonpayable",
      "type": "function"
    },
    {
      "inputs": [
        {
          "internalType": "address",
          "name": "account",
          "type": "address"
        },
        {
          "internalType": "uint256",
          "name": "amount",
          "type": "uint256"
        }
      ],
      "name": "burnFrom",
      "outputs": [],
      "stateMutability": "nonpayable",
      "type": "function"
    },
    {
      "inputs": [
        {
          "internalType": "uint256",
          "name": "roundId",
          "type": "uint256"
        }
      ],
      "name": "claimRevenue",
      "outputs": [],
      "stateMutability": "nonpayable",
      "type": "function"
    },
    {
      "inputs": [],
      "name": "complianceManager",
      "outputs": [
        {
          "internalType": "contract ComplianceManager",
          "name": "",
          "type": "address"
        }
      ],
      "stateMutability": "view",
      "type": "function"
    },
    {
      "inputs": [
        {
          "internalType": "uint256",
          "name": "",
          "type": "uint256"
        }
      ],
      "name": "dailyBurnAmount",
      "outputs": [
        {
          "internalType": "uint256",
          "name": "",
          "type": "uint256"
        }
      ],
      "stateMutability": "view",
      "type": "function"
    },
    {
      "inputs": [],
      "name": "dailyBurnLimit",
      "outputs": [
        {
          "internalType": "uint256",
          "name": "",
          "type": "uint256"
        }
      ],
      "stateMutability": "view",
      "type": "function"
    },
    {
      "inputs": [
        {
          "internalType": "uint256",
          "name": "",
          "type": "uint256"
        }
      ],
      "name": "dailyMintAmount",
      "outputs": [
        {
          "internalType": "uint256",
          "name": "",
          "type": "uint256"
        }
      ],
      "stateMutability": "view",
      "type": "function"
    },
    {
      "inputs": [],
      "name": "dailyMintLimit",
      "outputs": [
        {
          "internalType": "uint256",
          "name": "",
          "type": "uint256"
        }
      ],
      "stateMutability": "view",
      "type": "function"
    },
    {
      "inputs": [],
      "name": "decimals",
      "outputs": [
        {
          "internalType": "uint8",
          "name": "",
          "type": "uint8"
        }
      ],
      "stateMutability": "view",
      "type": "function"
    },
    {
      "inputs": [
        {
          "internalType": "address",
          "name": "spender",
          "type": "address"
        },
        {
          "internalType": "uint256",
          "name": "subtractedValue",
          "type": "uint256"
        }
      ],
      "name": "decreaseAllowance",
      "outputs": [
        {
          "internalType": "bool",
          "name": "",
          "type": "bool"
        }
      ],
      "stateMutability": "nonpayable",
      "type": "function"
    },
    {
      "inputs": [
        {
          "internalType": "uint256",
          "name": "totalRevenue",
          "type": "uint256"
        },
        {
          "internalType": "address",
          "name": "revenueToken",
          "type": "address"
        }
      ],
      "name": "distributeRevenue",
      "outputs": [],
      "stateMutability": "nonpayable",
      "type": "function"
    },
    {
      "inputs": [],
      "name": "emergencyPause",
      "outputs": [],
      "stateMutability": "nonpayable",
      "type": "function"
    },
    {
      "inputs": [],
      "name": "emergencyUnpause",
      "outputs": [],
      "stateMutability": "nonpayable",
      "type": "function"
    },
    {
      "inputs": [],
      "name": "getBackingRatio",
      "outputs": [
        {
          "internalType": "uint256",
          "name": "",
          "type": "uint256"
        }
      ],
      "stateMutability": "view",
      "type": "function"
    },
    {
      "inputs": [],
      "name": "getCurrentRevenueRound",
      "outputs": [
        {
          "internalType": "uint256",
          "name": "",
          "type": "uint256"
        }
      ],
      "stateMutability": "view",
      "type": "function"
    },
    {
      "inputs": [],
      "name": "getOperationLogCount",
      "outputs": [
        {
          "internalType": "uint256",
          "name": "",
          "type": "uint256"
        }
      ],
      "stateMutability": "view",
      "type": "function"
    },
    {
      "inputs": [],
      "name": "getPatentCount",
      "outputs": [
        {
          "internalType": "uint256",
          "name": "",
          "type": "uint256"
        }
      ],
      "stateMutability": "view",
      "type": "function"
    },
    {
      "inputs": [],
      "name": "getRedemptionRequestCounter",
      "outputs": [
        {
          "internalType": "uint256",
          "name": "",
          "type": "uint256"
        }
      ],
      "stateMutability": "view",
      "type": "function"
    },
    {
      "inputs": [],
      "name": "getReserveAssetCount",
      "outputs": [
        {
          "internalType": "uint256",
          "name": "",
          "type": "uint256"
        }
      ],
      "stateMutability": "view",
      "type": "function"
    },
    {
      "inputs": [
        {
          "internalType": "bytes32",
          "name": "role",
          "type": "bytes32"
        }
      ],
      "name": "getRoleAdmin",
      "outputs": [
        {
          "internalType": "bytes32",
          "name": "",
          "type": "bytes32"
        }
      ],
      "stateMutability": "view",
      "type": "function"
    },
    {
      "inputs": [
        {
          "internalType": "bytes32",
          "name": "role",
          "type": "bytes32"
        },
        {
          "internalType": "uint256",
          "name": "index",
          "type": "uint256"
        }
      ],
      "name": "getRoleMember",
      "outputs": [
        {
          "internalType": "address",
          "name": "",
          "type": "address"
        }
      ],
      "stateMutability": "view",
      "type": "function"
    },
    {
      "inputs": [
        {
          "internalType": "bytes32",
          "name": "role",
          "type": "bytes32"
        }
      ],
      "name": "getRoleMemberCount",
      "outputs": [
        {
          "internalType": "uint256",
          "name": "",
          "type": "uint256"
        }
      ],
      "stateMutability": "view",
      "type": "function"
    },
    {
      "inputs": [
        {
          "internalType": "bytes32",
          "name": "role",
          "type": "bytes32"
        }
      ],
      "name": "getRoleMultisigWallet",
      "outputs": [
        {
          "internalType": "address",
          "name": "",
          "type": "address"
        }
      ],
      "stateMutability": "view",
      "type": "function"
    },
    {
      "inputs": [],
      "name": "getTotalPatentValuation",
      "outputs": [
        {
          "internalType": "uint256",
          "name": "",
          "type": "uint256"
        }
      ],
      "stateMutability": "view",
      "type": "function"
    },
    {
      "inputs": [],
      "name": "getTotalReserveValueUSD",
      "outputs": [
        {
          "internalType": "uint256",
          "name": "",
          "type": "uint256"
        }
      ],
      "stateMutability": "view",
      "type": "function"
    },
    {
      "inputs": [
        {
          "internalType": "bytes32",
          "name": "role",
          "type": "bytes32"
        },
        {
          "internalType": "address",
          "name": "account",
          "type": "address"
        }
      ],
      "name": "grantRole",
      "outputs": [],
      "stateMutability": "nonpayable",
      "type": "function"
    },
    {
      "inputs": [
        {
          "internalType": "bytes32",
          "name": "role",
          "type": "bytes32"
        },
        {
          "internalType": "address",
          "name": "account",
          "type": "address"
        }
      ],
      "name": "hasRole",
      "outputs": [
        {
          "internalType": "bool",
          "name": "",
          "type": "bool"
        }
      ],
      "stateMutability": "view",
      "type": "function"
    },
    {
      "inputs": [
        {
          "internalType": "address",
          "name": "spender",
          "type": "address"
        },
        {
          "internalType": "uint256",
          "name": "addedValue",
          "type": "uint256"
        }
      ],
      "name": "increaseAllowance",
      "outputs": [
        {
          "internalType": "bool",
          "name": "",
          "type": "bool"
        }
      ],
      "stateMutability": "nonpayable",
      "type": "function"
    },
    {
      "inputs": [
        {
          "internalType": "address",
          "name": "admin",
          "type": "address"
        },
        {
          "internalType": "address",
          "name": "_roleManager",
          "type": "address"
        },
        {
          "internalType": "address",
          "name": "_complianceManager",
          "type": "address"
        },
        {
          "internalType": "address",
          "name": "_patentAssetManager",
          "type": "address"
        },
        {
          "internalType": "address",
          "name": "_reserveAssetManager",
          "type": "address"
        },
        {
          "internalType": "address",
          "name": "_revenueDistributor",
          "type": "address"
        },
        {
          "internalType": "address",
          "name": "_redemptionManager",
          "type": "address"
        },
        {
          "internalType": "address",
          "name": "_auditLogger",
          "type": "address"
        },
        {
          "internalType": "address",
          "name": "treasury",
          "type": "address"
        }
      ],
      "name": "initialize",
      "outputs": [],
      "stateMutability": "nonpayable",
      "type": "function"
    },
    {
      "inputs": [
        {
          "internalType": "address",
          "name": "wallet",
          "type": "address"
        }
      ],
      "name": "isAuthorizedMultisig",
      "outputs": [
        {
          "internalType": "bool",
          "name": "",
          "type": "bool"
        }
      ],
      "stateMutability": "view",
      "type": "function"
    },
    {
      "inputs": [
        {
          "internalType": "address",
          "name": "account",
          "type": "address"
        }
      ],
      "name": "isBlacklisted",
      "outputs": [
        {
          "internalType": "bool",
          "name": "",
          "type": "bool"
        }
      ],
      "stateMutability": "view",
      "type": "function"
    },
    {
      "inputs": [
        {
          "internalType": "address",
          "name": "account",
          "type": "address"
        }
      ],
      "name": "isFrozen",
      "outputs": [
        {
          "internalType": "bool",
          "name": "",
          "type": "bool"
        }
      ],
      "stateMutability": "view",
      "type": "function"
    },
    {
      "inputs": [
        {
          "internalType": "address",
          "name": "account",
          "type": "address"
        }
      ],
      "name": "isWhitelisted",
      "outputs": [
        {
          "internalType": "bool",
          "name": "",
          "type": "bool"
        }
      ],
      "stateMutability": "view",
      "type": "function"
    },
    {
      "inputs": [],
      "name": "maxSupply",
      "outputs": [
        {
          "internalType": "uint256",
          "name": "",
          "type": "uint256"
        }
      ],
      "stateMutability": "view",
      "type": "function"
    },
    {
      "inputs": [
        {
          "internalType": "address",
          "name": "to",
          "type": "address"
        },
        {
          "internalType": "uint256",
          "name": "amount",
          "type": "uint256"
        }
      ],
      "name": "mint",
      "outputs": [],
      "stateMutability": "nonpayable",
      "type": "function"
    },
    {
      "inputs": [],
      "name": "name",
      "outputs": [
        {
          "internalType": "string",
          "name": "",
          "type": "string"
        }
      ],
      "stateMutability": "view",
      "type": "function"
    },
    {
      "inputs": [],
      "name": "patentAssetManager",
      "outputs": [
        {
          "internalType": "contract PatentAssetManager",
          "name": "",
          "type": "address"
        }
      ],
      "stateMutability": "view",
      "type": "function"
    },
    {
      "inputs": [],
      "name": "pause",
      "outputs": [],
      "stateMutability": "nonpayable",
      "type": "function"
    },
    {
      "inputs": [],
      "name": "paused",
      "outputs": [
        {
          "internalType": "bool",
          "name": "",
          "type": "bool"
        }
      ],
      "stateMutability": "view",
      "type": "function"
    },
    {
      "inputs": [],
      "name": "platformFeeRate",
      "outputs": [
        {
          "internalType": "uint256",
          "name": "",
          "type": "uint256"
        }
      ],
      "stateMutability": "view",
      "type": "function"
    },
    {
      "inputs": [
        {
          "internalType": "uint256",
          "name": "requestId",
          "type": "uint256"
        }
      ],
      "name": "processRedemption",
      "outputs": [],
      "stateMutability": "nonpayable",
      "type": "function"
    },
    {
      "inputs": [],
      "name": "proxiableUUID",
      "outputs": [
        {
          "internalType": "bytes32",
          "name": "",
          "type": "bytes32"
        }
      ],
      "stateMutability": "view",
      "type": "function"
    },
    {
      "inputs": [],
      "name": "redemptionManager",
      "outputs": [
        {
          "internalType": "contract RedemptionManager",
          "name": "",
          "type": "address"
        }
      ],
      "stateMutability": "view",
      "type": "function"
    },
    {
      "inputs": [
        {
          "internalType": "bytes32",
          "name": "role",
          "type": "bytes32"
        },
        {
          "internalType": "address",
          "name": "account",
          "type": "address"
        }
      ],
      "name": "renounceRole",
      "outputs": [],
      "stateMutability": "nonpayable",
      "type": "function"
    },
    {
      "inputs": [
        {
          "internalType": "uint256",
          "name": "amount",
          "type": "uint256"
        },
        {
          "internalType": "address",
          "name": "preferredAsset",
          "type": "address"
        }
      ],
      "name": "requestRedemption",
      "outputs": [
        {
          "internalType": "uint256",
          "name": "",
          "type": "uint256"
        }
      ],
      "stateMutability": "nonpayable",
      "type": "function"
    },
    {
      "inputs": [],
      "name": "reserveAssetManager",
      "outputs": [
        {
          "internalType": "contract ReserveAssetManager",
          "name": "",
          "type": "address"
        }
      ],
      "stateMutability": "view",
      "type": "function"
    },
    {
      "inputs": [],
      "name": "revenueDistributor",
      "outputs": [
        {
          "internalType": "contract RevenueDistributor",
          "name": "",
          "type": "address"
        }
      ],
      "stateMutability": "view",
      "type": "function"
    },
    {
      "inputs": [
        {
          "internalType": "bytes32",
          "name": "role",
          "type": "bytes32"
        },
        {
          "internalType": "address",
          "name": "account",
          "type": "address"
        }
      ],
      "name": "revokeRole",
      "outputs": [],
      "stateMutability": "nonpayable",
      "type": "function"
    },
    {
      "inputs": [],
      "name": "roleManager",
      "outputs": [
        {
          "internalType": "contract RoleManager",
          "name": "",
          "type": "address"
        }
      ],
      "stateMutability": "view",
      "type": "function"
    },
    {
      "inputs": [
        {
          "internalType": "uint256",
          "name": "_mintLimit",
          "type": "uint256"
        },
        {
          "internalType": "uint256",
          "name": "_burnLimit",
          "type": "uint256"
        }
      ],
      "name": "setDailyLimits",
      "outputs": [],
      "stateMutability": "nonpayable",
      "type": "function"
    },
    {
      "inputs": [
        {
          "internalType": "uint256",
          "name": "_maxSupply",
          "type": "uint256"
        }
      ],
      "name": "setMaxSupply",
      "outputs": [],
      "stateMutability": "nonpayable",
      "type": "function"
    },
    {
      "inputs": [
        {
          "internalType": "uint256",
          "name": "_feeRate",
          "type": "uint256"
        }
      ],
      "name": "setPlatformFeeRate",
      "outputs": [],
      "stateMutability": "nonpayable",
      "type": "function"
    },
    {
      "inputs": [
        {
          "internalType": "address",
          "name": "_treasury",
          "type": "address"
        }
      ],
      "name": "setTreasuryAddress",
      "outputs": [],
      "stateMutability": "nonpayable",
      "type": "function"
    },
    {
      "inputs": [
        {
          "internalType": "bytes4",
          "name": "interfaceId",
          "type": "bytes4"
        }
      ],
      "name": "supportsInterface",
      "outputs": [
        {
          "internalType": "bool",
          "name": "",
          "type": "bool"
        }
      ],
      "stateMutability": "view",
      "type": "function"
    },
    {
      "inputs": [],
      "name": "symbol",
      "outputs": [
        {
          "internalType": "string",
          "name": "",
          "type": "string"
        }
      ],
      "stateMutability": "view",
      "type": "function"
    },
    {
      "inputs": [],
      "name": "totalSupply",
      "outputs": [
        {
          "internalType": "uint256",
          "name": "",
          "type": "uint256"
        }
      ],
      "stateMutability": "view",
      "type": "function"
    },
    {
      "inputs": [
        {
          "internalType": "address",
          "name": "to",
          "type": "address"
        },
        {
          "internalType": "uint256",
          "name": "amount",
          "type": "uint256"
        }
      ],
      "name": "transfer",
      "outputs": [
        {
          "internalType": "bool",
          "name": "",
          "type": "bool"
        }
      ],
      "stateMutability": "nonpayable",
      "type": "function"
    },
    {
      "inputs": [
        {
          "internalType": "address",
          "name": "from",
          "type": "address"
        },
        {
          "internalType": "address",
          "name": "to",
          "type": "address"
        },
        {
          "internalType": "uint256",
          "name": "amount",
          "type": "uint256"
        }
      ],
      "name": "transferFrom",
      "outputs": [
        {
          "internalType": "bool",
          "name": "",
          "type": "bool"
        }
      ],
      "stateMutability": "nonpayable",
      "type": "function"
    },
    {
      "inputs": [],
      "name": "treasuryAddress",
      "outputs": [
        {
          "internalType": "address",
          "name": "",
          "type": "address"
        }
      ],
      "stateMutability": "view",
      "type": "function"
    },
    {
      "inputs": [],
      "name": "unpause",
      "outputs": [],
      "stateMutability": "nonpayable",
      "type": "function"
    },
    {
      "inputs": [
        {
          "internalType": "string",
          "name": "moduleName",
          "type": "string"
        },
        {
          "internalType": "address",
          "name": "newModule",
          "type": "address"
        }
      ],
      "name": "updateModule",
      "outputs": [],
      "stateMutability": "nonpayable",
      "type": "function"
    },
    {
      "inputs": [
        {
          "internalType": "address",
          "name": "newImplementation",
          "type": "address"
        }
      ],
      "name": "upgradeTo",
      "outputs": [],
      "stateMutability": "nonpayable",
      "type": "function"
    },
    {
      "inputs": [
        {
          "internalType": "address",
          "name": "newImplementation",
          "type": "address"
        },
        {
          "internalType": "bytes",
          "name": "data",
          "type": "bytes"
        }
      ],
      "name": "upgradeToAndCall",
      "outputs": [],
      "stateMutability": "payable",
      "type": "function"
    },
    {
      "inputs": [],
      "name": "version",
      "outputs": [
        {
          "internalType": "string",
          "name": "",
          "type": "string"
        }
      ],
      "stateMutability": "pure",
      "type": "function"
    }
  ],
  "bytecode": "0x60a08060405234620000e157306080526000549060ff8260081c166200008f575060ff8082160362000053575b60405161552c9081620000e782396080518181816127040152818161295201526135950152f35b60ff90811916176000557f7f26b83ff96e1f2b6a682f133852f6798a09c465da95921460cefb3847402498602060405160ff8152a1386200002c565b62461bcd60e51b815260206004820152602760248201527f496e697469616c697a61626c653a20636f6e747261637420697320696e697469604482015266616c697a696e6760c81b6064820152608490fd5b600080fdfe60a080604052600436101561001357600080fd5b600060805260003560e01c908162435da5146142e45750806301ffc9a71461427557806306a85f0f1461423857806306fdde03146141a15780630732cd091461411c5780630921224b146140f0578063095ea7b3146140ca5780630fc6f44814613ed85780631159baec14613e8557806314004bb014613e4857806318160ddd14613e285780631cb536ed14613c7857806323b872dd14613bb8578063248a9ca314613b86578063282c51f314613b495780632de03aa114613b0c5780632f2ff15d14613a39578063313ce56714613a1b5780633278eb04146139ef57806336568abe1461395d5780633659cfe614613571578063395093511461351e5780633af32abf146134bc5780633f4ba83a146132e157806340c10f1914612ea057806342966c6814612e835780634523ae4314612e575780634a4e3bd514612d075780634f1ef2861461290257806351858e27146127b557806352d1902d146126ef578063533bfe59146126c357806354fd4d5014612673578063570618e1146126365780635c975abb1461261157806360e65dae146125af57806360f3fe061461255c57806362680e4b1461253b5780636605bfda146124ec5780636f16b50d146122995780636f8b44b0146121ff578063709ce10a146121d057806370a082311461219457806379cc679014611ee65780637d2f2a8614611eb75780637e6b947a14611e7a5780638456cb5914611c675780638b44507c14611c145780638ecd94bb14611aac5780638fca97d014611a595780639010d07c14611a0f57806391d14854146119bf578063927fef2e1461193c57806395d89b41146118655780639883cffe146117a25780639b0cd9881461174f5780639d0efacc146116bc578063a217fddf1461169e578063a457c2d7146115f5578063a5b1b097146112b4578063a9059cbb14611283578063b81a659b14611230578063c5f87257146111f3578063c5f956af146111c7578063ca15c87314611198578063d3303e4114611177578063d53913931461113a578063d547741f146110f8578063d5abeb01146110d7578063dd62ed3e14611084578063de19716114611047578063e583983614610fe5578063e63ab1e914610fa8578063eae0a48814610f7c578063eeca08f014610f5b578063f515e6f214610f1e578063f5e95acb14610544578063f72c0d8b14610507578063fe575a871461046f578063ff7bce23146104435763ffa320991461039e57600080fd5b3461043d576080518060031936011261043a5760018060a01b0361022a54166020603554602460405180948193633d6a109160e01b835260048301525afa801561042d57608051906103f6575b602090604051908152f35b506020813d8211610425575b8161040f602093836143e5565b8101031261042057602090516103eb565b600080fd5b3d9150610402565b6040513d608051823e3d90fd5b80fd5b60805180fd5b3461043d576080518060031936011261043a57610228546040516001600160a01b039091168152602090f35b3461043d5760208060031936011261043d57610489614351565b6102285460405163fe575a8760e01b81526001600160a01b03928316600482015291839183916024918391165afa90811561042d57608051916104d2575b506040519015158152f35b90508181813d8311610500575b6104e981836143e5565b8101031261043d576104fa906152c6565b826104c7565b503d6104df565b3461043d576080518060031936011261043a5760206040517f189ab7a9244df0848122154315af71fe140f3db0fe014031783b0946b8c9d2e38152f35b3461043d5761012036600319011261043d5761055e614351565b610566614367565b604435906001600160a01b0382168203610420576064356001600160a01b0381168103610420576084356001600160a01b03811681036104205760a4356001600160a01b03811681036104205760c435916001600160a01b03831683036104205760e435936001600160a01b03851685036104205761010435966001600160a01b038816880361042057608051549860ff8a60081c1615998a809b610f11575b8015610efa575b15610e9e5760805160ff1982166001178155908b610e8c575b5061063d90506001600160a01b038a1615156151a3565b6001600160a01b03881615610e30576001600160a01b03821615610dce576001600160a01b03831615610d6b576001600160a01b03841615610d07576001600160a01b03851615610ca4576001600160a01b03861615610c42576001600160a01b03871615610be657604051906106b3826143ad565b600b82526a2830ba32b73a1021b7b4b760a91b6020830152604051916106d8836143ad565b600683526514105511539560d21b602084015261070660ff6080515460081c1661070181615203565b615203565b80519067ffffffffffffffff8211610ad657819061072560365461493e565b601f8111610b71575b5060805190602091601f8411600114610af9575060805192610aee575b50508160011b916000199060031b1c1916176036555b815167ffffffffffffffff8111610ad65761077d60375461493e565b601f8111610a6c575b50608051602090601f83116001146109ef5750819061088694608051926109e4575b50508160011b916000199060031b1c1916176037555b61080b60ff6080515460081c166107d481615203565b6107dd81615203565b6107e681615203565b60ff19609754166097556107f981615203565b61080281615203565b61070181615203565b60016101f5556001600160a01b031660008181527fa581b17bfc4d6578e300cafbf34fd2dc1fef0270d8c73f88a99dcde2859a6639602052604090205461012d9060ff1615610993575b506000805261015f6020527f213cbec2b438e27569ac0cf67d4573025a7224c5c7e3037a3c891b910e08dc68615029565b5061022780546001600160a01b03199081166001600160a01b03998a16179091556102288054821692891692909217909155610229805482169288169290921790915561022a805482169287169290921790915561022b805482169286169290921790915561022c805482169285169290921790915561022d805482169284169290921790915561022e80549091169290911691909117905560fa61022f556b033b2e3c9fd0803ce8000000610230556a084595161401484a00000061023181905561023255610957575b60805180f35b60805161ff001981541690557f7f26b83ff96e1f2b6a682f133852f6798a09c465da95921460cefb3847402498602060405160018152a1610951565b600080526020526040600020816000526020526040600020600160ff19825416179055338160007f2f8788117e7eff1d82e926ec794901d17c78024a50270940304540a733656f0d8180a48b610855565b015190508d806107a8565b60379094929394526000805160206154d7833981519152916080515b601f1985168110610a5457509183916001936108869695601f19811610610a3b575b505050811b016037556107be565b015160001960f88460031b161c191690558d8080610a2d565b91926020600181928685015181550194019201610a0b565b603760805152601f820160051c6000805160206154d78339815191520160208310610ac1575b601f820160051c6000805160206154d7833981519152018110610ab55750610786565b60008155600101610a92565b506000805160206154d7833981519152610a92565b634e487b7160e01b6080515260416004526024608051fd5b015190508d8061074b565b60369194505260008051602061549783398151915290608051935b601f1984168510610b56576001945083601f19811610610b3d575b505050811b01603655610761565b015160001960f88460031b161c191690558d8080610b2f565b81810151835560209485019460019093019290910190610b14565b909150603660805152601f830160051c6000805160206154978339815191520160208410610bd1575b908392915b601f820160051c600080516020615497833981519152018110610bc2575061072e565b60008155849350600101610b9f565b50600080516020615497833981519152610b9a565b60405162461bcd60e51b815260206004820152602e60248201527f506174656e74436f696e3a2061756469744c6f676765722063616e6e6f74206260448201526d65207a65726f206164647265737360901b6064820152608490fd5b60405162461bcd60e51b815260206004820152603460248201527f506174656e74436f696e3a20726564656d7074696f6e4d616e616765722063616044820152736e6e6f74206265207a65726f206164647265737360601b6064820152608490fd5b60405162461bcd60e51b815260206004820152603560248201527f506174656e74436f696e3a20726576656e75654469737472696275746f722063604482015274616e6e6f74206265207a65726f206164647265737360581b6064820152608490fd5b60405162461bcd60e51b815260206004820152603660248201527f506174656e74436f696e3a207265736572766541737365744d616e616765722060448201527563616e6e6f74206265207a65726f206164647265737360501b6064820152608490fd5b60405162461bcd60e51b815260206004820152603560248201527f506174656e74436f696e3a20706174656e7441737365744d616e616765722063604482015274616e6e6f74206265207a65726f206164647265737360581b6064820152608490fd5b60405162461bcd60e51b815260206004820152603460248201527f506174656e74436f696e3a20636f6d706c69616e63654d616e616765722063616044820152736e6e6f74206265207a65726f206164647265737360601b6064820152608490fd5b60405162461bcd60e51b815260206004820152602e60248201527f506174656e74436f696e3a20726f6c654d616e616765722063616e6e6f74206260448201526d65207a65726f206164647265737360901b6064820152608490fd5b61ffff19166101011790558a80610626565b60405162461bcd60e51b815260206004820152602e60248201527f496e697469616c697a61626c653a20636f6e747261637420697320616c72656160448201526d191e481a5b9a5d1a585b1a5e995960921b6064820152608490fd5b50303b15801561060d5750600160ff82161461060d565b50600160ff821610610606565b3461043d576080518060031936011261043a5760206040517f98db8a220cd0f09badce9f22d0ba7e93edb3d404448cc3560d391ab096ad16e98152f35b3461043d576080518060031936011261043a57602061022f54604051908152f35b3461043d576080518060031936011261043a5761022b546040516001600160a01b039091168152602090f35b3461043d576080518060031936011261043a5760206040517f65d7a28e3265b37a6474929f336521b332c1681b933f6cb9f3376673440d862a8152f35b3461043d5760208060031936011261043d57610fff614351565b610228546040516372c1cc1b60e11b81526001600160a01b03928316600482015291839183916024918391165afa90811561042d57608051916104d257506040519015158152f35b3461043d576080518060031936011261043a5760206040517f033f63ac7430e160807e6d11d8132bd60aa62d493fbd27108f22183c218dac838152f35b3461043d57604036600319011261043d5761109d614351565b6110a5614367565b9060018060a01b0380911660805152603460205260406080512091166000526020526020604060002054604051908152f35b3461043d576080518060031936011261043a57602061023054604051908152f35b3461043d57604036600319011261043d57610951600435611117614367565b90806080515261012d60205261113560016040608051200154614654565b614760565b3461043d576080518060031936011261043a5760206040517f9f2df0fed2c77648de5860a4cc508cd0818c85b8b8a1ab4ceeef8d981c8956a68152f35b3461043d576080518060031936011261043a57602061023254604051908152f35b3461043d57602036600319011261043d576004356080515261015f602052602060406080512054604051908152f35b3461043d576080518060031936011261043a5761022e546040516001600160a01b039091168152602090f35b3461043d576080518060031936011261043a5760206040517fcc938097bd07c9f1619d5e95c26b457140e80b889795c7c1cbd51a28005e02ac8152f35b3461043d576080518060031936011261043a5761022d5460405163b81a659b60e01b815290602090829060049082906001600160a01b03165afa801561042d57608051906103f657602090604051908152f35b3461043d57604036600319011261043d576112a961129f614351565b602435903361499b565b602060405160018152f35b3461043d57604036600319011261043d5760043567ffffffffffffffff80821161043d573660238301121561043d57816004013590811161043d576024820191602482369201011161043d57611308614367565b61131061445a565b6001600160a01b0390811691821561159a5761132d368286614423565b602081519101207f3ee833f9a00a5c16c22d680afd944532db30fb8792c5ab006ecf38df07335cb681146000146113b9575061022780546001600160a01b0319811685179091558216935b81604051928392833781016080518152039020906080519316907fe5340bb646fa554a3082f7baa2b415eb1874ff7d4c3f118686180386e71f738e8480a480f35b7f254e7cd2e65e9e5a77daee359665480f1315c457306b8a094a0a595983cd15fe81036113fe575061022880546001600160a01b031981168517909155821693611378565b7f5317636d1ffad5a5f80c59acf03b9f37c53c3a8a00ebb58670e4b9d23a9eecc78103611443575061022980546001600160a01b031981168517909155821693611378565b7ff5bf4271e0c140b155200b5be2ff3a83ceab9cbc05244d948313d61ba63c38398103611488575061022a80546001600160a01b031981168517909155821693611378565b7fa059acedad7a01ded2f1467c3b97bc9b6dfd8bb1a628658411e6294da849400c81036114cd575061022b80546001600160a01b031981168517909155821693611378565b7f78a746dc1451ddf1b5ee1f44a652274b64f4c07a4b9eefdc73bd8cf85e1d4e7d8103611512575061022c80546001600160a01b031981168517909155821693611378565b7f025bccb0dccabee15f8d6bdfb7748aefe245dc7d97fc8bb2b00c2debfe2b180a036115555761022d80546001600160a01b031981168517909155821693611378565b60405162461bcd60e51b815260206004820152601f60248201527f506174656e74436f696e3a20756e6b6e6f776e206d6f64756c65206e616d65006044820152606490fd5b60405162461bcd60e51b815260206004820152602d60248201527f506174656e74436f696e3a206e6577206d6f64756c652063616e6e6f7420626560448201526c207a65726f206164647265737360981b6064820152608490fd5b3461043d57604036600319011261043d5761160e614351565b602435903360805152603460205260406080512060018060a01b0382166000526020526040600020549180831061164b576112a992039033614c3c565b60405162461bcd60e51b815260206004820152602560248201527f45524332303a2064656372656173656420616c6c6f77616e63652062656c6f77604482015264207a65726f60d81b6064820152608490fd5b3461043d576080518060031936011261043a57602090604051908152f35b3461043d5760208060031936011261043d5761022754604051632743beb360e21b81526004803590820152906001600160a01b039083908390602490829085165afa91821561042d5760805192611718575b5060405191168152f35b9091508281813d8311611748575b61173081836143e5565b8101031261043d5761174190615482565b908361170e565b503d611726565b3461043d576080518060031936011261043a57610229546040516313619b3160e31b815290602090829060049082906001600160a01b03165afa801561042d57608051906103f657602090604051908152f35b3461043d57604036600319011261043d576024356004356117c161445a565b80156118205781156117db57610231556102325560805180f35b60405162461bcd60e51b815260206004820152601e60248201527f506174656e74436f696e3a20696e76616c6964206275726e206c696d697400006044820152606490fd5b60405162461bcd60e51b815260206004820152601e60248201527f506174656e74436f696e3a20696e76616c6964206d696e74206c696d697400006044820152606490fd5b3461043d576080518060031936011261043a57604051906037546118888161493e565b8084529060019081811690811561191557506001146118ca575b6118c6846118b2818603826143e5565b60405191829160208352602083019061432c565b0390f35b60808051603790525192506000805160206154d78339815191525b8284106118fd5750505081016020016118b2826118a2565b805460208587018101919091529093019281016118e5565b60ff191660208087019190915292151560051b850190920192506118b291508390506118a2565b3461043d57602036600319011261043d5760043561195861445a565b6103e8811161196b5761022f5560805180f35b60405162461bcd60e51b815260206004820152602660248201527f506174656e74436f696e3a2066656520726174652063616e6e6f74206578636560448201526565642031302560d01b6064820152608490fd5b3461043d57604036600319011261043d576119d8614367565b6004356080515261012d6020526040608051209060018060a01b0316600052602052602060ff604060002054166040519015158152f35b3461043d57604036600319011261043d576004356080515261015f6020526020611a40602435604060805120615011565b905460405160039290921b1c6001600160a01b03168152f35b3461043d576080518060031936011261043a5761022c546040516308fca97d60e41b815290602090829060049082906001600160a01b03165afa801561042d57608051906103f657602090604051908152f35b3461043d57604036600319011261043d57611ac5614367565b7f033f63ac7430e160807e6d11d8132bd60aa62d493fbd27108f22183c218dac8360805152602061012d8152604060805120336000528152611b0e60ff60406000205416615263565b610227546040516330732ed760e11b81523360048201526001600160a01b0392909181908390602490829087165afa90811561042d5760805191611bdd575b50611b5891506152d3565b611b60615393565b61022b541690603554823b1561043d57604051637a184a8560e11b815260805160048035908301526001600160a01b03909316602482015260448101919091529182908180606481010391608051905af1801561042d57611bc8575b60016101f55560805180f35b611bd19061437d565b6080518015611bbc5780fd5b905081813d8311611c0d575b611bf381836143e5565b8101031261043d57611c07611b58916152c6565b84611b4d565b503d611be9565b3461043d576080518060031936011261043a5761022a546040516322d1141f60e21b815290602090829060049082906001600160a01b03165afa801561042d57608051906103f657602090604051908152f35b3461043d576080518060031936011261043a577f65d7a28e3265b37a6474929f336521b332c1681b933f6cb9f3376673440d862a80915260209061012d8252604060805120336000528252611cc360ff60406000205416615263565b610227546040516330732ed760e11b81523360048201526001600160a01b039184908290602490829086165afa801561042d5760805190611e44575b611d0991506152d3565b60405192611d16846143ad565b6005845264504155534560d81b8185015260975460ff8116611e0c5760ff19166001176097556040513381527f62e78cea01bee320cd4e420270b5ea74000d11b0c9f74754ebdbfc544b05a2589190a16040519160805191337f81990fd9a5c552b8e3677917d8a03c07678f0d2cb68f88b634aca2022e9bd19f8480a261022d541691823b1561043a57509082611dd081958294634851441960e01b8452600484015233602484015260a0604484015260a483019061432c565b3060648301526000608483015260805194859103925af1801561042d57611df75760805180f35b611e009061437d565b60805180156109515780fd5b60405162461bcd60e51b815260048101839052601060248201526f14185d5cd8589b194e881c185d5cd95960821b6044820152606490fd5b508381813d8311611e73575b611e5a81836143e5565b8101031261043d57611e6e611d09916152c6565b611cff565b503d611e50565b3461043d576080518060031936011261043a5760206040517fe4b53607f0d5db686eea4c2568602f38f9a0a31883c6efb58ff2d132f39dd1af8152f35b3461043d57602036600319011261043d5760043560805152610234602052602060406080512054604051908152f35b3461043d57604036600319011261043d57611eff614351565b602435907f3c11d16cbaffd01df69ce1c404f6340ee057498f5f00246190ea54220576a848806080515260209061012d8252604060805120336000528252611f4e60ff60406000205416615263565b610227546040516330732ed760e11b81523360048201526001600160a01b039184908290602490829086165afa801561042d576080519061215e575b611f9491506152d3565b611f9c615393565b620151804204806080515261023490818552611fbe8760406080512054614978565b610232541061210b57608051528352604060805120611fde868254614978565b905560405192611fed846143ad565b6004845263212aa92760e11b818501528185169485156120b4578661201c91612017821515615335565b614d3e565b847f08009940fb138ae33fbb70c10b643e840c71f1654344cc173975a815e117e687604051928884523393a361022d541690813b1561043d576120899360405195869586958694634851441960e01b8652600486015233602486015260a0604486015260a485019061432c565b916064840152608483015260805194859103925af1801561042d57611bc85760016101f55560805180f35b60405162461bcd60e51b815260048101839052602960248201527f506174656e74436f696e3a2063616e6e6f74206275726e2066726f6d207a65726044820152686f206164647265737360b81b6064820152608490fd5b60405162461bcd60e51b815260048101869052602560248201527f506174656e74436f696e3a206461696c79206275726e206c696d697420657863604482015264195959195960da1b6064820152608490fd5b508381813d831161218d575b61217481836143e5565b8101031261043d57612188611f94916152c6565b611f8a565b503d61216a565b3461043d57602036600319011261043d576001600160a01b036121b5614351565b16608051526033602052602060406080512054604051908152f35b3461043d57602036600319011261043d5760043560805152610233602052602060406080512054604051908152f35b3461043d57602036600319011261043d5760043561221b61445a565b603554811061222e576102305560805180f35b60405162461bcd60e51b815260206004820152603960248201527f506174656e74436f696e3a206d617820737570706c792063616e6e6f7420626560448201527f206c657373207468616e2063757272656e7420737570706c79000000000000006064820152608490fd5b3461043d57604036600319011261043d576004356122b5614367565b6122bd615393565b81156124a757336080515260209160338352806040608051205410612464576102285460405163fe575a8760e01b81523360048201526001600160a01b039391841692908581602481875afa801561042d57869160805191612426575b5093612328602495156153ea565b6040516372c1cc1b60e11b815233600482015294859182905afa801561042d578593608051916123e7575b509061236160649215615436565b61236c81303361499b565b8461022c54166040519586948593630414a54760e51b85523360048601526024850152166044830152608051905af190811561042d57608051916123ba575b5060016101f555604051908152f35b90508181813d83116123e0575b6123d181836143e5565b810103126104205751826123ab565b503d6123c7565b8481939592503d831161241f575b6123ff81836143e5565b8101031261043d5784926123616124176064936152c6565b919250612353565b503d6123f5565b82819392503d831161245d575b61243d81836143e5565b8101031261043d5760249361232861245588936152c6565b91955061231a565b503d612433565b6064836040519062461bcd60e51b825280600483015260248201527f506174656e74436f696e3a20696e73756666696369656e742062616c616e63656044820152fd5b60405162461bcd60e51b815260206004820152601a60248201527f506174656e74436f696e3a20696e76616c696420616d6f756e740000000000006044820152606490fd5b3461043d57602036600319011261043d57612505614351565b61250d61445a565b6001600160a01b03166125218115156151a3565b61022e80546001600160a01b031916909117905560805180f35b3461043d576080518060031936011261043a57602061023154604051908152f35b3461043d576080518060031936011261043a5761022954604051633079ff0360e11b815290602090829060049082906001600160a01b03165afa801561042d57608051906103f657602090604051908152f35b3461043d5760208060031936011261043d576125c9614351565b610227546040516330732ed760e11b81526001600160a01b03928316600482015291839183916024918391165afa90811561042d57608051916104d257506040519015158152f35b3461043d576080518060031936011261043a57602060ff609754166040519015158152f35b3461043d576080518060031936011261043a5760206040517f8619cecd8b9e095ab43867f5b69d492180450fe862e6b50bfbfb24b75dd84c8a8152f35b3461043d576080518060031936011261043a576118c6604051612695816143ad565b600d81526c191718171816b6b7b23ab630b960991b602082015260405191829160208352602083019061432c565b3461043d576080518060031936011261043a5761022a546040516001600160a01b039091168152602090f35b3461043d576080518060031936011261043a577f00000000000000000000000000000000000000000000000000000000000000006001600160a01b0316300361274a5760206040516000805160206154b78339815191528152f35b60405162461bcd60e51b815260206004820152603860248201527f555550535570677261646561626c653a206d757374206e6f742062652063616c60448201527f6c6564207468726f7567682064656c656761746563616c6c00000000000000006064820152608490fd5b3461043d576080518060031936011261043a576127d061445a565b60975460ff81166128ca5760019060ff1916176097557f62e78cea01bee320cd4e420270b5ea74000d11b0c9f74754ebdbfc544b05a2586020604051338152a161022d546001600160a01b0316803b1561043d5760405190634851441960e01b8252608051600483015233602483015260a06044830152600f60a48301526e454d455247454e43595f504155534560881b60c483015230606483015260805160848301528160e48160805180945af1801561042d576128b5575b608051337f81990fd9a5c552b8e3677917d8a03c07678f0d2cb68f88b634aca2022e9bd19f8280a280f35b6128be9061437d565b608051801561288a5780fd5b60405162461bcd60e51b815260206004820152601060248201526f14185d5cd8589b194e881c185d5cd95960821b6044820152606490fd5b604036600319011261043d57612916614351565b602490813567ffffffffffffffff811161043d573660238201121561043d576129489036908481600401359101614423565b6001600160a01b037f000000000000000000000000000000000000000000000000000000000000000081169190612981308414156147ec565b61299e6000805160206154b783398151915293828554161461484d565b7f189ab7a9244df0848122154315af71fe140f3db0fe014031783b0946b8c9d2e392836080515260209361012d85526040608051203360005285526129ea60ff60406000205416615263565b8685846102275416604051928380926330732ed760e11b82523360048301525afa801561042d5760805190612cd1575b612a2491506152d3565b8261022d541692833b1561043d5760405191634851441960e01b83526004830152338883015260a06044830152600760a4830152665550475241444560c81b60c483015286169283606483015260805160848301528160e48160805180945af1801561042d57612cbc575b507f4910fdfa16fed3260ed0e7147f7cc6da11a60208b5b9406d12a635614ffd91435460ff1615612ac8575050505061095191506148ae565b6040516352d1902d60e01b81529394938581600481865afa60009181612c8d575b50612b495760405162461bcd60e51b815260048101879052602e818901527f45524331393637557067726164653a206e657720696d706c656d656e7461746960448201526d6f6e206973206e6f74205555505360901b6064820152608490fd5b95919294939503612c385750612b5e846148ae565b7fbc7cd75a20ee27fd9adebab32041f755214dbc6bffa90cc0225b39da2e5c2d3b600080a2815115801590612c30575b612b9b575b505050610951565b612c1e9260008060405194612baf86614391565b602786527f416464726573733a206c6f772d6c6576656c2064656c65676174652063616c6c85870152660819985a5b195960ca1b60408701528481519101845af4903d15612c27573d612c0181614407565b90612c0f60405192836143e5565b8152600081943d92013e614e53565b50808080612b93565b60609250614e53565b506001612b8e565b8260296084926040519262461bcd60e51b845260048401528201527f45524331393637557067726164653a20756e737570706f727465642070726f786044820152681a58589b195555525160ba1b6064820152fd5b9091508681813d8311612cb5575b612ca581836143e5565b8101031261042057519088612ae9565b503d612c9b565b612cc59061437d565b6080518015612a8f5780fd5b508581813d8311612d00575b612ce781836143e5565b8101031261043d57612cfb612a24916152c6565b612a1a565b503d612cdd565b3461043d576080518060031936011261043a57612d2261445a565b60975460ff811615612e1b5760ff19166097557f5db9ee0a495bf2e6ff9c91a7834c1ba4fdd244a5e8aa4e537bd38aeae4b073aa6020604051338152a161022d546001600160a01b0316803b1561043d5760405190634851441960e01b8252608051600483015233602483015260a06044830152601160a483015270454d455247454e43595f554e504155534560781b60c483015230606483015260805160848301528160e48160805180945af1801561042d57612e06575b608051337f5b65b0c1363b3003db9bcc5e1fd8805a6d6bf5bf6dc9d3431ee4494cd7d117668280a280f35b612e0f9061437d565b6080518015612ddb5780fd5b60405162461bcd60e51b815260206004820152601460248201527314185d5cd8589b194e881b9bdd081c185d5cd95960621b6044820152606490fd5b3461043d576080518060031936011261043a57610229546040516001600160a01b039091168152602090f35b3461043d57602036600319011261043d5761095160043533614d3e565b3461043d57604036600319011261043d57612eb9614351565b6024908135917f9f2df0fed2c77648de5860a4cc508cd0818c85b8b8a1ab4ceeef8d981c8956a6806080515260209061012d8252604060805120336000528252612f0a60ff60406000205416615263565b610227546040516330732ed760e11b81523360048201526001600160a01b0391849082908790829086165afa801561042d57608051906132ab575b612f4f91506152d3565b612f57615393565b620151804204806080515261023390818552612f798860406080512054614978565b610231541061325957608051528352604060805120612f99878254614978565b90558060405195612fa9876143ad565b60048752631352539560e21b858801521692831561320657612fcc871515615335565b603554612fd98882614978565b61023054106131c2576044828461022854166040519283809263d55603eb60e01b8252600060048301528a8c8301525afa90811561042d576080519161318d575b501561313d5760ff609754166130e6578761303491614978565b603555836080515260338152604060805120878154019055836040518881527fddf252ad1be2c89b69c2b068fc378daa952ba7f163c4a11628f55a4df523b3ef8360805192a3837f969cd201f68f120baff2bf3c59bc3b534434e08b69a71a14ab85cb79cd3b63e4604051928984523393a361022d541691823b1561043d576120899560405196879687968795634851441960e01b87526004870152339086015260a0604486015260a485019061432c565b60405162461bcd60e51b815260048101839052602a818801527f45524332305061757361626c653a20746f6b656e207472616e736665722077686044820152691a5b19481c185d5cd95960b21b6064820152608490fd5b60405162461bcd60e51b8152600481018390526023818801527f506174656e74436f696e3a20636f6d706c69616e636520636865636b206661696044820152621b195960ea1b6064820152608490fd5b90508281813d83116131bb575b6131a481836143e5565b8101031261043d576131b5906152c6565b8961301a565b503d61319a565b60405162461bcd60e51b815260048101839052601e818801527f506174656e74436f696e3a2065786365656473206d617820737570706c7900006044820152606490fd5b6084906027866040519262461bcd60e51b845260048401528201527f506174656e74436f696e3a2063616e6e6f74206d696e7420746f207a65726f206044820152666164647265737360c81b6064820152fd5b60405162461bcd60e51b8152600481018690526025818801527f506174656e74436f696e3a206461696c79206d696e74206c696d697420657863604482015264195959195960da1b6064820152608490fd5b508381813d83116132da575b6132c181836143e5565b8101031261043d576132d5612f4f916152c6565b612f45565b503d6132b7565b3461043d576080518060031936011261043a577f2fc10cc8ae19568712f7a176fb4978616a610650813c9d05326c34abb62749c780915260209061012d825260406080512033600052825261333d60ff60406000205416615263565b610227546040516330732ed760e11b81523360048201526001600160a01b039184908290602490829086165afa801561042d5760805190613486575b61338391506152d3565b60405192613390846143ad565b6007845266554e504155534560c81b8185015260975460ff81161561344a5760ff19166097556040513381527f5db9ee0a495bf2e6ff9c91a7834c1ba4fdd244a5e8aa4e537bd38aeae4b073aa9190a16040519160805191337f5b65b0c1363b3003db9bcc5e1fd8805a6d6bf5bf6dc9d3431ee4494cd7d117668480a261022d541691823b1561043a57509082611dd081958294634851441960e01b8452600484015233602484015260a0604484015260a483019061432c565b60405162461bcd60e51b815260048101839052601460248201527314185d5cd8589b194e881b9bdd081c185d5cd95960621b6044820152606490fd5b508381813d83116134b5575b61349c81836143e5565b8101031261043d576134b0613383916152c6565b613379565b503d613492565b3461043d5760208060031936011261043d576134d6614351565b61022854604051633af32abf60e01b81526001600160a01b03928316600482015291839183916024918391165afa90811561042d57608051916104d257506040519015158152f35b3461043d57604036600319011261043d576112a961353a614351565b3360805152603460205260406080512060018060a01b03821660005260205261356a602435604060002054614978565b9033614c3c565b3461043d5760208060031936011261043d5761358b614351565b6001600160a01b037f0000000000000000000000000000000000000000000000000000000000000000811692906135c4308514156147ec565b6135e16000805160206154b783398151915294828654161461484d565b7f189ab7a9244df0848122154315af71fe140f3db0fe014031783b0946b8c9d2e3806080515261012d835260406080512033600052835261362960ff60406000205416615263565b602483836102275416604051928380926330732ed760e11b82523360048301525afa801561042d5760805190613927575b61366491506152d3565b8161022d541691823b1561043d5760405191634851441960e01b8352600483015233602483015260a06044830152600760a4830152665550475241444560c81b60c483015284169182606483015260805160848301528160e48160805180945af1801561042d57613912575b50604051908282019482861067ffffffffffffffff8711176138fc5785604052608051835260ff7f4910fdfa16fed3260ed0e7147f7cc6da11a60208b5b9406d12a635614ffd9143541660001461372f575050505061095191506148ae565b6040516352d1902d60e01b8152939492938581600481865afa600091816138cd575b506137b25760405162461bcd60e51b815260048101879052602e60248201527f45524331393637557067726164653a206e657720696d706c656d656e7461746960448201526d6f6e206973206e6f74205555505360901b6064820152608490fd5b94939403613876576137c3826148ae565b7fbc7cd75a20ee27fd9adebab32041f755214dbc6bffa90cc0225b39da2e5c2d3b600080a282511580159061386e575b613801575b50505050610951565b600080613864956040519561381587614391565b602787527f416464726573733a206c6f772d6c6576656c2064656c65676174652063616c6c86880152660819985a5b195960ca1b60408801525190845af4903d15612c27573d612c0181614407565b50808080806137f8565b5060006137f3565b60405162461bcd60e51b815260048101849052602960248201527f45524331393637557067726164653a20756e737570706f727465642070726f786044820152681a58589b195555525160ba1b6064820152608490fd5b9091508681813d83116138f5575b6138e581836143e5565b8101031261042057519088613751565b503d6138db565b634e487b7160e01b600052604160045260246000fd5b61391b9061437d565b60805180156136d05780fd5b508381813d8311613956575b61393d81836143e5565b8101031261043d57613951613664916152c6565b61365a565b503d613933565b3461043d57604036600319011261043d57613976614367565b336001600160a01b038216036139925761095190600435614760565b60405162461bcd60e51b815260206004820152602f60248201527f416363657373436f6e74726f6c3a2063616e206f6e6c792072656e6f756e636560448201526e103937b632b9903337b91039b2b63360891b6064820152608490fd5b3461043d576080518060031936011261043a5761022c546040516001600160a01b039091168152602090f35b3461043d576080518060031936011261043a57602060405160128152f35b3461043d57604036600319011261043d57613ab660043561015f613a5b614367565b91806080515261012d90602091808352613a7d60016040608051200154614654565b600082815281845260408082206001600160a01b0390971680835296855290205460ff1615613abd575b50600052526040600020615029565b5060805180f35b81600052825260406000208460005282526040600020600160ff198254161790553384827f2f8788117e7eff1d82e926ec794901d17c78024a50270940304540a733656f0d600080a485613aa7565b3461043d576080518060031936011261043a5760206040517f2fc10cc8ae19568712f7a176fb4978616a610650813c9d05326c34abb62749c78152f35b3461043d576080518060031936011261043a5760206040517f3c11d16cbaffd01df69ce1c404f6340ee057498f5f00246190ea54220576a8488152f35b3461043d57602036600319011261043d576004356080515261012d602052602060016040608051200154604051908152f35b3461043d57606036600319011261043d57613bd1614351565b613bd9614367565b6044359060018060a01b03831660805152603460205260406080512033600052602052604060002054926000198403613c17575b6112a9935061499b565b828410613c3357613c2e836112a995033383614c3c565b613c0d565b60405162461bcd60e51b815260206004820152601d60248201527f45524332303a20696e73756666696369656e7420616c6c6f77616e63650000006044820152606490fd5b3461043d5760208060031936011261043d57613c92615393565b6102285460405163fe575a8760e01b81523360048201526001600160a01b03918216908381602481855afa801561042d57849160805191613dea575b5091613cdc602493156153ea565b6040516372c1cc1b60e11b815233600482015292839182905afa801561042d57839160805191613dab575b5091613d16613d649315615436565b61022b5416336080515260338252604060805120549060405180809581946321c0eb2d60e21b835233600435600485016040919493926060820195825260018060a01b031660208201520152565b0391608051905af1801561042d57613d825760016101f55560805180f35b813d8311613da4575b613d9581836143e5565b81010312610420578080611bbc565b503d613d8b565b82819392503d8311613de3575b613dc281836143e5565b8101031261043d57613d6491613d16613ddb85936152c6565b919350613d07565b503d613db8565b82819392503d8311613e21575b613e0181836143e5565b8101031261043d57602491613cdc613e1986936152c6565b919350613cce565b503d613df7565b3461043d576080518060031936011261043a576020603554604051908152f35b3461043d576080518060031936011261043a5760206040517f4a04db7e5d3d49285a29b51f294130b264a381bcd66e3f4474bdec268790a58f8152f35b3461043d576080518060031936011261043a5761022b546040516304566ebb60e21b815290602090829060049082906001600160a01b03165afa801561042d57608051906103f657602090604051908152f35b3461043d5760208060031936011261043d57600435907fe4b53607f0d5db686eea4c2568602f38f9a0a31883c6efb58ff2d132f39dd1af6080515261012d815260805160408120903390528152613f3760ff6040608051205416615263565b610227546040516330732ed760e11b81523360048201526001600160a01b03929182908290602490829087165afa801561042d5760805190614094575b613f7e91506152d3565b602461022c9160a08484541660405193848092631d53787760e11b82528960048301525afa801561042d5760805190614005575b613fbf9250015130614d3e565b5416803b1561043d57604051916301f8de8960e31b835260048301528160248160805180945af1801561042d57613ff65760805180f35b613fff9061437d565b80610951565b5060a0823d821161408c575b8161401e60a093836143e5565b8101031261043d5760405160a081019281841067ffffffffffffffff851117610ad657608061408291613fbf9560405261405781615482565b8452848101518585015260408101516040850152614077606082016152c6565b606085015201615482565b6080820152613fb2565b3d9150614011565b508181813d83116140c3575b6140aa81836143e5565b8101031261043d576140be613f7e916152c6565b613f74565b503d6140a0565b3461043d57604036600319011261043d576112a96140e6614351565b6024359033614c3c565b3461043d576080518060031936011261043a5761022d546040516001600160a01b039091168152602090f35b3461043d576080518060031936011261043a5761022a54604051630732cd0960e01b815290602090829060049082906001600160a01b03165afa801561042d576080519061416f57602090604051908152f35b506020813d8211614199575b81614188602093836143e5565b8101031261043d57602090516103eb565b3d915061417b565b3461043d576080518060031936011261043a57604051906036546141c48161493e565b8084529060019081811690811561191557506001146141ed576118c6846118b2818603826143e5565b60808051603690525192506000805160206154978339815191525b8284106142205750505081016020016118b2826118a2565b80546020858701810191909152909301928101614208565b3461043d576080518060031936011261043a5760206040517f92de27771f92d6942691d73358b3a4673e4880de8356f8f2cf452be87e02d3638152f35b3461043d57602036600319011261043d5760043563ffffffff60e01b811680910361043d57602090635a05180f60e01b81149081156142b957506040519015158152f35b637965db0b60e01b8114915081156142d3575b50826104c7565b6301ffc9a760e01b149050826142cc565b3461042057600036600319011261042057610227546001600160a01b03168152602090f35b60005b83811061431c5750506000910152565b818101518382015260200161430c565b9060209161434581518092818552858086019101614309565b601f01601f1916010190565b600435906001600160a01b038216820361042057565b602435906001600160a01b038216820361042057565b67ffffffffffffffff81116138fc57604052565b6060810190811067ffffffffffffffff8211176138fc57604052565b6040810190811067ffffffffffffffff8211176138fc57604052565b6080810190811067ffffffffffffffff8211176138fc57604052565b90601f8019910116810190811067ffffffffffffffff8211176138fc57604052565b67ffffffffffffffff81116138fc57601f01601f191660200190565b92919261442f82614407565b9161443d60405193846143e5565b829481845281830111610420578281602093846000960137010152565b3360009081527fa581b17bfc4d6578e300cafbf34fd2dc1fef0270d8c73f88a99dcde2859a6639602090815260408083205490929060ff161561449c57505050565b6144a533614f13565b90808451906144b3826143c9565b6042825284820192606036853782511561464057603084538251906001918210156146405790607860218501536041915b8183116145d25750505061459057604861458c93869361457093614561985198899376020b1b1b2b9b9a1b7b73a3937b61d1030b1b1b7bab73a1604d1b8a860152614538815180928c603789019101614309565b8401917001034b99036b4b9b9b4b733903937b6329607d1b603784015251809386840190614309565b010360288101875201856143e5565b5192839262461bcd60e51b84526004840152602483019061432c565b0390fd5b60648486519062461bcd60e51b825280600483015260248201527f537472696e67733a20686578206c656e67746820696e73756666696369656e746044820152fd5b909192600f8116601081101561462c576f181899199a1a9b1b9c1cb0b131b232b360811b901a6146028587614eec565b5360041c928015614618576000190191906144e4565b634e487b7160e01b82526011600452602482fd5b634e487b7160e01b83526032600452602483fd5b634e487b7160e01b81526032600452602490fd5b60009080825260209061012d8252604092838120338252835260ff84822054161561467f5750505050565b61468833614f13565b91845190614695826143c9565b6042825284820192606036853782511561464057603084538251906001918210156146405790607860218501536041915b81831161471a5750505061459057604861458c93869361457093614561985198899376020b1b1b2b9b9a1b7b73a3937b61d1030b1b1b7bab73a1604d1b8a860152614538815180928c603789019101614309565b909192600f8116601081101561462c576f181899199a1a9b1b9c1cb0b131b232b360811b901a61474a8587614eec565b5360041c928015614618576000190191906146c6565b9060406147a29260009080825261012d806020528383209460018060a01b03169485845260205260ff84842054166147a5575b50815261015f602052206150b3565b50565b81835260205282822084835260205282822060ff1981541690553384827ff6391f5c32d9c69d2a47ea670b442974b53935d1edc7fd64eb21e047a839171b8580a438614793565b156147f357565b60405162461bcd60e51b815260206004820152602c60248201527f46756e6374696f6e206d7573742062652063616c6c6564207468726f7567682060448201526b19195b1959d85d1958d85b1b60a21b6064820152608490fd5b1561485457565b60405162461bcd60e51b815260206004820152602c60248201527f46756e6374696f6e206d7573742062652063616c6c6564207468726f7567682060448201526b6163746976652070726f787960a01b6064820152608490fd5b803b156148e3576000805160206154b783398151915280546001600160a01b0319166001600160a01b03909216919091179055565b60405162461bcd60e51b815260206004820152602d60248201527f455243313936373a206e657720696d706c656d656e746174696f6e206973206e60448201526c1bdd08184818dbdb9d1c9858dd609a1b6064820152608490fd5b90600182811c9216801561496e575b602083101461495857565b634e487b7160e01b600052602260045260246000fd5b91607f169161494d565b9190820180921161498557565b634e487b7160e01b600052601160045260246000fd5b6001600160a01b0392908316918215614be9578316928315614b985760ff60975416614b405761022854169060408051809363d55603eb60e01b825285600483015286602483015281604460209687935afa908115614b3557600091614b00575b5015614ab25783600052603383528060002054828110614a5f5790827fddf252ad1be2c89b69c2b068fc378daa952ba7f163c4a11628f55a4df523b3ef9493928660005260338552038160002055856000528060002082815401905551908152a3565b815162461bcd60e51b815260048101859052602660248201527f45524332303a207472616e7366657220616d6f756e7420657863656564732062604482015265616c616e636560d01b6064820152608490fd5b5162461bcd60e51b815260048101839052602260248201527f506174656e74436f696e3a207472616e73666572206e6f7420636f6d706c69616044820152611b9d60f21b6064820152608490fd5b908482813d8311614b2e575b614b1681836143e5565b8101031261043a5750614b28906152c6565b386149fc565b503d614b0c565b82513d6000823e3d90fd5b60405162461bcd60e51b815260206004820152602a60248201527f45524332305061757361626c653a20746f6b656e207472616e736665722077686044820152691a5b19481c185d5cd95960b21b6064820152608490fd5b60405162461bcd60e51b815260206004820152602360248201527f45524332303a207472616e7366657220746f20746865207a65726f206164647260448201526265737360e81b6064820152608490fd5b60405162461bcd60e51b815260206004820152602560248201527f45524332303a207472616e736665722066726f6d20746865207a65726f206164604482015264647265737360d81b6064820152608490fd5b6001600160a01b03908116918215614ced5716918215614c9d5760207f8c5be1e5ebec7d5bd14f71427d1e84f3dd0314c0f7b2291e5b200ac8c7c3b925918360005260348252604060002085600052825280604060002055604051908152a3565b60405162461bcd60e51b815260206004820152602260248201527f45524332303a20617070726f766520746f20746865207a65726f206164647265604482015261737360f01b6064820152608490fd5b60405162461bcd60e51b8152602060048201526024808201527f45524332303a20617070726f76652066726f6d20746865207a65726f206164646044820152637265737360e01b6064820152608490fd5b6001600160a01b03168015614e045760ff60975416614b405780600052603360205260406000205491808310614db4576020817fddf252ad1be2c89b69c2b068fc378daa952ba7f163c4a11628f55a4df523b3ef92600095858752603384520360408620558060355403603555604051908152a3565b60405162461bcd60e51b815260206004820152602260248201527f45524332303a206275726e20616d6f756e7420657863656564732062616c616e604482015261636560f01b6064820152608490fd5b60405162461bcd60e51b815260206004820152602160248201527f45524332303a206275726e2066726f6d20746865207a65726f206164647265736044820152607360f81b6064820152608490fd5b91929015614eb55750815115614e67575090565b3b15614e705790565b60405162461bcd60e51b815260206004820152601d60248201527f416464726573733a2063616c6c20746f206e6f6e2d636f6e74726163740000006044820152606490fd5b825190915015614ec85750805190602001fd5b60405162461bcd60e51b81526020600482015290819061458c90602483019061432c565b908151811015614efd570160200190565b634e487b7160e01b600052603260045260246000fd5b60405190614f2082614391565b602a8252602082016040368237825115614efd57603090538151600190811015614efd57607860218401536029905b808211614fa3575050614f5f5790565b606460405162461bcd60e51b815260206004820152602060248201527f537472696e67733a20686578206c656e67746820696e73756666696369656e746044820152fd5b9091600f81166010811015614ffc576f181899199a1a9b1b9c1cb0b131b232b360811b901a614fd28486614eec565b5360041c918015614fe7576000190190614f4f565b60246000634e487b7160e01b81526011600452fd5b60246000634e487b7160e01b81526032600452fd5b8054821015614efd5760005260206000200190600090565b919060018301600090828252806020526040822054156000146150ad57845494680100000000000000008610156150995783615089615072886001604098999a01855584615011565b819391549060031b91821b91600019901b19161790565b9055549382526020522055600190565b634e487b7160e01b83526041600452602483fd5b50925050565b9060018201906000928184528260205260408420549081151560001461519c5760001991808301818111615188578254908482019182116151745780820361513f575b5050508054801561512b5782019161510e8383615011565b909182549160031b1b191690555582526020526040812055600190565b634e487b7160e01b86526031600452602486fd5b61515f61514f6150729386615011565b90549060031b1c92839286615011565b905586528460205260408620553880806150f6565b634e487b7160e01b88526011600452602488fd5b634e487b7160e01b87526011600452602487fd5b5050505090565b156151aa57565b60405162461bcd60e51b815260206004820152602b60248201527f506174656e74436f696e3a2074726561737572792063616e6e6f74206265207a60448201526a65726f206164647265737360a81b6064820152608490fd5b1561520a57565b60405162461bcd60e51b815260206004820152602b60248201527f496e697469616c697a61626c653a20636f6e7472616374206973206e6f74206960448201526a6e697469616c697a696e6760a81b6064820152608490fd5b1561526a57565b60405162461bcd60e51b815260206004820152602e60248201527f506174656e74436f696e3a2063616c6c657220646f6573206e6f74206861766560448201526d20726571756972656420726f6c6560901b6064820152608490fd5b5190811515820361042057565b156152da57565b60405162461bcd60e51b815260206004820152602d60248201527f506174656e74436f696e3a2063616c6c6572206973206e6f7420617574686f7260448201526c697a6564206d756c746973696760981b6064820152608490fd5b1561533c57565b60405162461bcd60e51b815260206004820152602960248201527f506174656e74436f696e3a20616d6f756e74206d75737420626520677265617460448201526806572207468616e20360bc1b6064820152608490fd5b6101f560028154146153a55760029055565b60405162461bcd60e51b815260206004820152601f60248201527f5265656e7472616e637947756172643a207265656e7472616e742063616c6c006044820152606490fd5b156153f157565b60405162461bcd60e51b815260206004820152601f60248201527f506174656e74436f696e3a206164647265737320626c61636b6c6973746564006044820152606490fd5b1561543d57565b60405162461bcd60e51b815260206004820152601a60248201527f506174656e74436f696e3a20616464726573732066726f7a656e0000000000006044820152606490fd5b51906001600160a01b03821682036104205756fe4a11f94e20a93c79f6ec743a1954ec4fc2c08429ae2122118bf234b2185c81b8360894a13ba1a3210667c828492db98dca3e2076cc3735a920a3ca505d382bbc42a7b7dd785cd69714a189dffb3fd7d7174edc9ece837694ce50f7078f7c31aea2646970667358221220b31eea26248bd329b317d6b674ae4dfa8d6582f6ead2768a6b11545b1755dbc564736f6c63430008130033",
  "linkReferences": {},
  "deployedLinkReferences": {}
}