{
  "_format": "hh-sol-artifact-1",
  "contractName": "RevenueDistributor",
  "sourceName": "contracts/modules/RevenueDistributor.sol",
  "abi": [
    {
      "anonymous": false,
      "inputs": [
        {
          "indexed": false,
          "internalType": "uint256",
          "name": "oldDeadline",
          "type": "uint256"
        },
        {
          "indexed": false,
          "internalType": "uint256",
          "name": "newDeadline",
          "type": "uint256"
        }
      ],
      "name": "ClaimDeadlineUpdated",
      "type": "event"
    },
    {
      "anonymous": false,
      "inputs": [
        {
          "indexed": false,
          "internalType": "uint8",
          "name": "version",
          "type": "uint8"
        }
      ],
      "name": "Initialized",
      "type": "event"
    },
    {
      "anonymous": false,
      "inputs": [
        {
          "indexed": true,
          "internalType": "address",
          "name": "multisig",
          "type": "address"
        },
        {
          "indexed": false,
          "internalType": "bool",
          "name": "authorized",
          "type": "bool"
        }
      ],
      "name": "MultisigAuthorized",
      "type": "event"
    },
    {
      "anonymous": false,
      "inputs": [
        {
          "indexed": true,
          "internalType": "address",
          "name": "oldContract",
          "type": "address"
        },
        {
          "indexed": true,
          "internalType": "address",
          "name": "newContract",
          "type": "address"
        }
      ],
      "name": "PatentCoinContractUpdated",
      "type": "event"
    },
    {
      "anonymous": false,
      "inputs": [
        {
          "indexed": false,
          "internalType": "uint256",
          "name": "oldRate",
          "type": "uint256"
        },
        {
          "indexed": false,
          "internalType": "uint256",
          "name": "newRate",
          "type": "uint256"
        }
      ],
      "name": "PlatformFeeRateUpdated",
      "type": "event"
    },
    {
      "anonymous": false,
      "inputs": [
        {
          "indexed": true,
          "internalType": "uint256",
          "name": "roundId",
          "type": "uint256"
        },
        {
          "indexed": true,
          "internalType": "address",
          "name": "user",
          "type": "address"
        },
        {
          "indexed": false,
          "internalType": "uint256",
          "name": "amount",
          "type": "uint256"
        }
      ],
      "name": "RevenueClaimed",
      "type": "event"
    },
    {
      "anonymous": false,
      "inputs": [
        {
          "indexed": true,
          "internalType": "uint256",
          "name": "roundId",
          "type": "uint256"
        },
        {
          "indexed": false,
          "internalType": "uint256",
          "name": "totalAmount",
          "type": "uint256"
        },
        {
          "indexed": false,
          "internalType": "address",
          "name": "revenueToken",
          "type": "address"
        }
      ],
      "name": "RevenueDistributed",
      "type": "event"
    },
    {
      "anonymous": false,
      "inputs": [
        {
          "indexed": true,
          "internalType": "uint256",
          "name": "roundId",
          "type": "uint256"
        },
        {
          "indexed": false,
          "internalType": "uint256",
          "name": "unclaimedAmount",
          "type": "uint256"
        }
      ],
      "name": "RevenueRoundFinalized",
      "type": "event"
    },
    {
      "anonymous": false,
      "inputs": [
        {
          "indexed": true,
          "internalType": "bytes32",
          "name": "role",
          "type": "bytes32"
        },
        {
          "indexed": true,
          "internalType": "bytes32",
          "name": "previousAdminRole",
          "type": "bytes32"
        },
        {
          "indexed": true,
          "internalType": "bytes32",
          "name": "newAdminRole",
          "type": "bytes32"
        }
      ],
      "name": "RoleAdminChanged",
      "type": "event"
    },
    {
      "anonymous": false,
      "inputs": [
        {
          "indexed": true,
          "internalType": "bytes32",
          "name": "role",
          "type": "bytes32"
        },
        {
          "indexed": true,
          "internalType": "address",
          "name": "account",
          "type": "address"
        },
        {
          "indexed": true,
          "internalType": "address",
          "name": "sender",
          "type": "address"
        }
      ],
      "name": "RoleGranted",
      "type": "event"
    },
    {
      "anonymous": false,
      "inputs": [
        {
          "indexed": true,
          "internalType": "bytes32",
          "name": "role",
          "type": "bytes32"
        },
        {
          "indexed": true,
          "internalType": "address",
          "name": "account",
          "type": "address"
        },
        {
          "indexed": true,
          "internalType": "address",
          "name": "sender",
          "type": "address"
        }
      ],
      "name": "RoleRevoked",
      "type": "event"
    },
    {
      "anonymous": false,
      "inputs": [
        {
          "indexed": true,
          "internalType": "address",
          "name": "oldTreasury",
          "type": "address"
        },
        {
          "indexed": true,
          "internalType": "address",
          "name": "newTreasury",
          "type": "address"
        }
      ],
      "name": "TreasuryAddressUpdated",
      "type": "event"
    },
    {
      "inputs": [],
      "name": "BLACKLISTER_ROLE",
      "outputs": [
        {
          "internalType": "bytes32",
          "name": "",
          "type": "bytes32"
        }
      ],
      "stateMutability": "view",
      "type": "function"
    },
    {
      "inputs": [],
      "name": "BURNER_ROLE",
      "outputs": [
        {
          "internalType": "bytes32",
          "name": "",
          "type": "bytes32"
        }
      ],
      "stateMutability": "view",
      "type": "function"
    },
    {
      "inputs": [],
      "name": "DEFAULT_ADMIN_ROLE",
      "outputs": [
        {
          "internalType": "bytes32",
          "name": "",
          "type": "bytes32"
        }
      ],
      "stateMutability": "view",
      "type": "function"
    },
    {
      "inputs": [],
      "name": "FREEZER_ROLE",
      "outputs": [
        {
          "internalType": "bytes32",
          "name": "",
          "type": "bytes32"
        }
      ],
      "stateMutability": "view",
      "type": "function"
    },
    {
      "inputs": [],
      "name": "MAX_FEE_RATE",
      "outputs": [
        {
          "internalType": "uint256",
          "name": "",
          "type": "uint256"
        }
      ],
      "stateMutability": "view",
      "type": "function"
    },
    {
      "inputs": [],
      "name": "MINTER_ROLE",
      "outputs": [
        {
          "internalType": "bytes32",
          "name": "",
          "type": "bytes32"
        }
      ],
      "stateMutability": "view",
      "type": "function"
    },
    {
      "inputs": [],
      "name": "PATENT_MANAGER_ROLE",
      "outputs": [
        {
          "internalType": "bytes32",
          "name": "",
          "type": "bytes32"
        }
      ],
      "stateMutability": "view",
      "type": "function"
    },
    {
      "inputs": [],
      "name": "PAUSER_ROLE",
      "outputs": [
        {
          "internalType": "bytes32",
          "name": "",
          "type": "bytes32"
        }
      ],
      "stateMutability": "view",
      "type": "function"
    },
    {
      "inputs": [],
      "name": "REDEMPTION_PROCESSOR_ROLE",
      "outputs": [
        {
          "internalType": "bytes32",
          "name": "",
          "type": "bytes32"
        }
      ],
      "stateMutability": "view",
      "type": "function"
    },
    {
      "inputs": [],
      "name": "RESERVE_MANAGER_ROLE",
      "outputs": [
        {
          "internalType": "bytes32",
          "name": "",
          "type": "bytes32"
        }
      ],
      "stateMutability": "view",
      "type": "function"
    },
    {
      "inputs": [],
      "name": "RESUME_ROLE",
      "outputs": [
        {
          "internalType": "bytes32",
          "name": "",
          "type": "bytes32"
        }
      ],
      "stateMutability": "view",
      "type": "function"
    },
    {
      "inputs": [],
      "name": "REVENUE_MANAGER_ROLE",
      "outputs": [
        {
          "internalType": "bytes32",
          "name": "",
          "type": "bytes32"
        }
      ],
      "stateMutability": "view",
      "type": "function"
    },
    {
      "inputs": [],
      "name": "UPGRADER_ROLE",
      "outputs": [
        {
          "internalType": "bytes32",
          "name": "",
          "type": "bytes32"
        }
      ],
      "stateMutability": "view",
      "type": "function"
    },
    {
      "inputs": [],
      "name": "WHITELISTER_ROLE",
      "outputs": [
        {
          "internalType": "bytes32",
          "name": "",
          "type": "bytes32"
        }
      ],
      "stateMutability": "view",
      "type": "function"
    },
    {
      "inputs": [
        {
          "internalType": "address",
          "name": "",
          "type": "address"
        }
      ],
      "name": "authorizedMultisigs",
      "outputs": [
        {
          "internalType": "bool",
          "name": "",
          "type": "bool"
        }
      ],
      "stateMutability": "view",
      "type": "function"
    },
    {
      "inputs": [
        {
          "internalType": "uint256[]",
          "name": "roundIds",
          "type": "uint256[]"
        },
        {
          "internalType": "address",
          "name": "user",
          "type": "address"
        },
        {
          "internalType": "uint256",
          "name": "userBalance",
          "type": "uint256"
        }
      ],
      "name": "batchClaimRevenue",
      "outputs": [
        {
          "internalType": "uint256",
          "name": "totalClaimed",
          "type": "uint256"
        }
      ],
      "stateMutability": "nonpayable",
      "type": "function"
    },
    {
      "inputs": [
        {
          "internalType": "address[]",
          "name": "multisigs",
          "type": "address[]"
        },
        {
          "internalType": "bool[]",
          "name": "authorizations",
          "type": "bool[]"
        }
      ],
      "name": "batchSetMultisigAuthorization",
      "outputs": [],
      "stateMutability": "nonpayable",
      "type": "function"
    },
    {
      "inputs": [],
      "name": "claimDeadline",
      "outputs": [
        {
          "internalType": "uint256",
          "name": "",
          "type": "uint256"
        }
      ],
      "stateMutability": "view",
      "type": "function"
    },
    {
      "inputs": [
        {
          "internalType": "uint256",
          "name": "roundId",
          "type": "uint256"
        },
        {
          "internalType": "address",
          "name": "user",
          "type": "address"
        },
        {
          "internalType": "uint256",
          "name": "userBalance",
          "type": "uint256"
        }
      ],
      "name": "claimRevenue",
      "outputs": [
        {
          "internalType": "uint256",
          "name": "",
          "type": "uint256"
        }
      ],
      "stateMutability": "nonpayable",
      "type": "function"
    },
    {
      "inputs": [],
      "name": "currentRevenueRound",
      "outputs": [
        {
          "internalType": "uint256",
          "name": "",
          "type": "uint256"
        }
      ],
      "stateMutability": "view",
      "type": "function"
    },
    {
      "inputs": [
        {
          "internalType": "uint256",
          "name": "totalRevenue",
          "type": "uint256"
        },
        {
          "internalType": "address",
          "name": "revenueToken",
          "type": "address"
        },
        {
          "internalType": "uint256",
          "name": "totalSupply",
          "type": "uint256"
        }
      ],
      "name": "distributeRevenue",
      "outputs": [],
      "stateMutability": "nonpayable",
      "type": "function"
    },
    {
      "inputs": [
        {
          "internalType": "uint256",
          "name": "roundId",
          "type": "uint256"
        }
      ],
      "name": "finalizeExpiredRound",
      "outputs": [],
      "stateMutability": "nonpayable",
      "type": "function"
    },
    {
      "inputs": [
        {
          "internalType": "uint256",
          "name": "roundId",
          "type": "uint256"
        },
        {
          "internalType": "address",
          "name": "user",
          "type": "address"
        },
        {
          "internalType": "uint256",
          "name": "userBalance",
          "type": "uint256"
        }
      ],
      "name": "getClaimableRevenue",
      "outputs": [
        {
          "internalType": "uint256",
          "name": "",
          "type": "uint256"
        }
      ],
      "stateMutability": "view",
      "type": "function"
    },
    {
      "inputs": [],
      "name": "getCurrentRevenueRound",
      "outputs": [
        {
          "internalType": "uint256",
          "name": "",
          "type": "uint256"
        }
      ],
      "stateMutability": "view",
      "type": "function"
    },
    {
      "inputs": [
        {
          "internalType": "uint256",
          "name": "roundId",
          "type": "uint256"
        }
      ],
      "name": "getRevenueRound",
      "outputs": [
        {
          "components": [
            {
              "internalType": "uint256",
              "name": "totalAmount",
              "type": "uint256"
            },
            {
              "internalType": "uint256",
              "name": "timestamp",
              "type": "uint256"
            },
            {
              "internalType": "address",
              "name": "revenueToken",
              "type": "address"
            },
            {
              "internalType": "uint256",
              "name": "totalSupplySnapshot",
              "type": "uint256"
            }
          ],
          "internalType": "struct IRevenueDistributor.RevenueRound",
          "name": "",
          "type": "tuple"
        }
      ],
      "stateMutability": "view",
      "type": "function"
    },
    {
      "inputs": [
        {
          "internalType": "bytes32",
          "name": "role",
          "type": "bytes32"
        }
      ],
      "name": "getRoleAdmin",
      "outputs": [
        {
          "internalType": "bytes32",
          "name": "",
          "type": "bytes32"
        }
      ],
      "stateMutability": "view",
      "type": "function"
    },
    {
      "inputs": [
        {
          "internalType": "bytes32",
          "name": "role",
          "type": "bytes32"
        },
        {
          "internalType": "uint256",
          "name": "index",
          "type": "uint256"
        }
      ],
      "name": "getRoleMember",
      "outputs": [
        {
          "internalType": "address",
          "name": "",
          "type": "address"
        }
      ],
      "stateMutability": "view",
      "type": "function"
    },
    {
      "inputs": [
        {
          "internalType": "bytes32",
          "name": "role",
          "type": "bytes32"
        }
      ],
      "name": "getRoleMemberCount",
      "outputs": [
        {
          "internalType": "uint256",
          "name": "",
          "type": "uint256"
        }
      ],
      "stateMutability": "view",
      "type": "function"
    },
    {
      "inputs": [
        {
          "internalType": "address",
          "name": "user",
          "type": "address"
        }
      ],
      "name": "getUserRevenueStats",
      "outputs": [
        {
          "internalType": "uint256",
          "name": "totalClaimed",
          "type": "uint256"
        },
        {
          "internalType": "uint256",
          "name": "pendingRounds",
          "type": "uint256"
        },
        {
          "internalType": "uint256",
          "name": "totalPending",
          "type": "uint256"
        }
      ],
      "stateMutability": "view",
      "type": "function"
    },
    {
      "inputs": [
        {
          "internalType": "bytes32",
          "name": "role",
          "type": "bytes32"
        },
        {
          "internalType": "address",
          "name": "account",
          "type": "address"
        }
      ],
      "name": "grantRole",
      "outputs": [],
      "stateMutability": "nonpayable",
      "type": "function"
    },
    {
      "inputs": [
        {
          "internalType": "uint256",
          "name": "roundId",
          "type": "uint256"
        },
        {
          "internalType": "address",
          "name": "user",
          "type": "address"
        }
      ],
      "name": "hasClaimedRevenue",
      "outputs": [
        {
          "internalType": "bool",
          "name": "",
          "type": "bool"
        }
      ],
      "stateMutability": "view",
      "type": "function"
    },
    {
      "inputs": [
        {
          "internalType": "bytes32",
          "name": "role",
          "type": "bytes32"
        },
        {
          "internalType": "address",
          "name": "account",
          "type": "address"
        }
      ],
      "name": "hasRole",
      "outputs": [
        {
          "internalType": "bool",
          "name": "",
          "type": "bool"
        }
      ],
      "stateMutability": "view",
      "type": "function"
    },
    {
      "inputs": [
        {
          "internalType": "address",
          "name": "_patentCoinContract",
          "type": "address"
        },
        {
          "internalType": "address",
          "name": "admin",
          "type": "address"
        },
        {
          "internalType": "address",
          "name": "_treasuryAddress",
          "type": "address"
        }
      ],
      "name": "initialize",
      "outputs": [],
      "stateMutability": "nonpayable",
      "type": "function"
    },
    {
      "inputs": [
        {
          "internalType": "address",
          "name": "wallet",
          "type": "address"
        }
      ],
      "name": "isAuthorizedMultisig",
      "outputs": [
        {
          "internalType": "bool",
          "name": "",
          "type": "bool"
        }
      ],
      "stateMutability": "view",
      "type": "function"
    },
    {
      "inputs": [],
      "name": "moduleVersion",
      "outputs": [
        {
          "internalType": "string",
          "name": "",
          "type": "string"
        }
      ],
      "stateMutability": "pure",
      "type": "function"
    },
    {
      "inputs": [],
      "name": "patentCoinContract",
      "outputs": [
        {
          "internalType": "address",
          "name": "",
          "type": "address"
        }
      ],
      "stateMutability": "view",
      "type": "function"
    },
    {
      "inputs": [],
      "name": "platformFeeRate",
      "outputs": [
        {
          "internalType": "uint256",
          "name": "",
          "type": "uint256"
        }
      ],
      "stateMutability": "view",
      "type": "function"
    },
    {
      "inputs": [
        {
          "internalType": "bytes32",
          "name": "role",
          "type": "bytes32"
        },
        {
          "internalType": "address",
          "name": "account",
          "type": "address"
        }
      ],
      "name": "renounceRole",
      "outputs": [],
      "stateMutability": "nonpayable",
      "type": "function"
    },
    {
      "inputs": [
        {
          "internalType": "bytes32",
          "name": "role",
          "type": "bytes32"
        },
        {
          "internalType": "address",
          "name": "account",
          "type": "address"
        }
      ],
      "name": "revokeRole",
      "outputs": [],
      "stateMutability": "nonpayable",
      "type": "function"
    },
    {
      "inputs": [
        {
          "internalType": "uint256",
          "name": "_deadline",
          "type": "uint256"
        }
      ],
      "name": "setClaimDeadline",
      "outputs": [],
      "stateMutability": "nonpayable",
      "type": "function"
    },
    {
      "inputs": [
        {
          "internalType": "address",
          "name": "multisig",
          "type": "address"
        },
        {
          "internalType": "bool",
          "name": "authorized",
          "type": "bool"
        }
      ],
      "name": "setMultisigAuthorization",
      "outputs": [],
      "stateMutability": "nonpayable",
      "type": "function"
    },
    {
      "inputs": [
        {
          "internalType": "address",
          "name": "_patentCoinContract",
          "type": "address"
        }
      ],
      "name": "setPatentCoinContract",
      "outputs": [],
      "stateMutability": "nonpayable",
      "type": "function"
    },
    {
      "inputs": [
        {
          "internalType": "uint256",
          "name": "_feeRate",
          "type": "uint256"
        }
      ],
      "name": "setPlatformFeeRate",
      "outputs": [],
      "stateMutability": "nonpayable",
      "type": "function"
    },
    {
      "inputs": [
        {
          "internalType": "address",
          "name": "_treasuryAddress",
          "type": "address"
        }
      ],
      "name": "setTreasuryAddress",
      "outputs": [],
      "stateMutability": "nonpayable",
      "type": "function"
    },
    {
      "inputs": [
        {
          "internalType": "bytes4",
          "name": "interfaceId",
          "type": "bytes4"
        }
      ],
      "name": "supportsInterface",
      "outputs": [
        {
          "internalType": "bool",
          "name": "",
          "type": "bool"
        }
      ],
      "stateMutability": "view",
      "type": "function"
    },
    {
      "inputs": [
        {
          "internalType": "address",
          "name": "",
          "type": "address"
        }
      ],
      "name": "totalClaimedByUser",
      "outputs": [
        {
          "internalType": "uint256",
          "name": "",
          "type": "uint256"
        }
      ],
      "stateMutability": "view",
      "type": "function"
    },
    {
      "inputs": [
        {
          "internalType": "address",
          "name": "",
          "type": "address"
        }
      ],
      "name": "totalDistributedByToken",
      "outputs": [
        {
          "internalType": "uint256",
          "name": "",
          "type": "uint256"
        }
      ],
      "stateMutability": "view",
      "type": "function"
    },
    {
      "inputs": [],
      "name": "totalPlatformFees",
      "outputs": [
        {
          "internalType": "uint256",
          "name": "",
          "type": "uint256"
        }
      ],
      "stateMutability": "view",
      "type": "function"
    },
    {
      "inputs": [],
      "name": "treasuryAddress",
      "outputs": [
        {
          "internalType": "address",
          "name": "",
          "type": "address"
        }
      ],
      "stateMutability": "view",
      "type": "function"
    }
  ],
  "bytecode": "0x60808060405234610016576129c1908161001c8239f35b600080fdfe6040608081526004908136101561001557600080fd5b600091823560e01c908162d0088c14611d4157816301ffc9a714611cce57816306a85f0f14611c935781631159baec14611ac257816314004bb014611c58578163248a9ca314611c2d57816325aa22d814611b1c578163282c51f314611ae15781632a2d7ea014611ac25781632de03aa114611a875781632f2ff15d146119cb57816334a717a71461185457816336568abe146117c2578163390a936e146116835781633ba86c441461166357816340c47bb2146115ce578163570618e1146115935781635737dfe1146115625781635a4c23691461153f57816360e65dae14610e525781636605bfda146114bf578163664a6ff3146114865781637564a098146113ba5781637e6b947a1461137f5781638703acb4146110035781639010d07c14610fc257816391d1485414610f7b578163927fef2e14610ec857816392f6576e14610eab578163a217fddf14610e90578163a3497ee714610e52578163baa3b4d714610dd3578163bb0fecc714610d9a578163c0c53b8b14610b07578163c5f8725714610acc578163c5f956af14610aa3578163ca15c87314610a7b578163d3631fa514610a5b578163d539139314610a20578163d547741f146109e1578163d71d87021461093c578163de19716114610901578163e63ab1e9146108c6578163eeca08f0146108a6578163f430950a146104e4578163f490e820146102dc57508063f515e6f2146102a2578063f72c0d8b146102685763fdf6ed001461023d57600080fd5b3461026457816003193601126102645760fb5490516001600160a01b039091168152602090f35b5080fd5b5034610264578160031936011261026457602090517f189ab7a9244df0848122154315af71fe140f3db0fe014031783b0946b8c9d2e38152f35b5034610264578160031936011261026457602090517f98db8a220cd0f09badce9f22d0ba7e93edb3d404448cc3560d391ab096ad16e98152f35b919050346104e0576020806003193601126104dc578235916102fc611e92565b61030a60fe54841115612857565b82855260fd825280852090600682019182549260ff841661048b57610337600183015461010454906122b2565b42111561043a5790879160016103538354600585015490612486565b9560ff19161790558361038e575b50507ee2c6c4b2c79b5e4e01ac7e9b266118c324e36b79779a3ca8c9fadd0735df6a93945051908152a280f35b6002015460ff54835163a9059cbb60e01b81526001600160a01b0391821698810198895260208901869052978693899391849003604001928492165af1948515610430577ee2c6c4b2c79b5e4e01ac7e9b266118c324e36b79779a3ca8c9fadd0735df6a9495610403575b8594879150610361565b61042290843d8611610429575b61041a81836121de565b810190612787565b50386103f9565b503d610410565b81513d88823e3d90fd5b825162461bcd60e51b8152808801869052602560248201527f526576656e75654469737472696275746f723a20726f756e64206e6f742065786044820152641c1a5c995960da1b6064820152608490fd5b825162461bcd60e51b8152808801869052602560248201527f526576656e75654469737472696275746f723a20616c72656164792066696e616044820152641b1a5e995960da1b6064820152608490fd5b8380fd5b8280fd5b9050346104e0576104f436611e19565b907f033f63ac7430e160807e6d11d8132bd60aa62d493fbd27108f22183c218dac83869593955260209360658552838720338852855260ff84882054161561084c5733875260fc855260ff8488205416156107f35761055161279f565b83519161055d836121c2565b602a83526105a57f526576656e75654469737472696275746f723a20696e76616c69642072657665938488820152691b9d5948185b5bdd5b9d60b21b87820152881515612743565b8451926105b1846121c2565b602984528684015268373ab2903a37b5b2b760b91b858401526001600160a01b03908116926105e290841515612743565b61063585516105f0816121c2565b602c81527f526576656e75654469737472696275746f723a206e6f20746f6b656e7320696e888201526b1031b4b931bab630ba34b7b760a11b87820152851515612743565b6127106106456101005489612289565b049660066106538983612486565b9561065f60fe5461264e565b8060fe558b5260fd8952878b209087825560028201876001600160601b0360a01b82541617905542600183015560038201550160ff1981541690558551906323b872dd60e01b82523384830152306024830152604482015286816064818c885af180156107e9576107cc575b5086610725575b50507f61c930556685a120d8b29d3d33e10ea6455d094e97f6ce748f2e69c92d46b5ad939450808652610102855282862061070e8382546122b2565b905560fe54948351928352820152a2600160c95580f35b60ff54855163a9059cbb60e01b815291166001600160a01b031691810191825260208201879052959085908790819060400103818a865af19586156107c2577f61c930556685a120d8b29d3d33e10ea6455d094e97f6ce748f2e69c92d46b5ad95966107a5575b5061079b6101039182546122b2565b90558493386106d2565b6107bb90873d89116104295761041a81836121de565b503861078c565b84513d89823e3d90fd5b6107e290873d89116104295761041a81836121de565b50386106cb565b86513d8b823e3d90fd5b835162461bcd60e51b8152908101859052602d60248201527f426173654d6f64756c653a2063616c6c6572206973206e6f7420617574686f7260448201526c697a6564206d756c746973696760981b6064820152608490fd5b835162461bcd60e51b8152908101859052602e60248201527f426173654d6f64756c653a2063616c6c657220646f6573206e6f74206861766560448201526d20726571756972656420726f6c6560901b6064820152608490fd5b505034610264578160031936011261026457602090610100549051908152f35b505034610264578160031936011261026457602090517f65d7a28e3265b37a6474929f336521b332c1681b933f6cb9f3376673440d862a8152f35b505034610264578160031936011261026457602090517f033f63ac7430e160807e6d11d8132bd60aa62d493fbd27108f22183c218dac838152f35b9050346104e05760203660031901126104e057608092829135816060845161096381612190565b8281528260208201528286820152015261098160fe54821115612857565b815260fd6020522080549160018201549160018060a01b039060038260028301541691015493606084516109b481612190565b87815260208101928352858101938452019485528351958652516020860152511690830152516060820152f35b919050346104e057806003193601126104e057610a1d9135610a186001610a06611dd2565b93838752606560205286200154612086565b612200565b80f35b505034610264578160031936011261026457602090517f9f2df0fed2c77648de5860a4cc508cd0818c85b8b8a1ab4ceeef8d981c8956a68152f35b505034610264578160031936011261026457602090610103549051908152f35b9050346104e05760203660031901126104e05760209282913581526097845220549051908152f35b50503461026457816003193601126102645760ff5490516001600160a01b039091168152602090f35b505034610264578160031936011261026457602090517fcc938097bd07c9f1619d5e95c26b457140e80b889795c7c1cbd51a28005e02ac8152f35b9050346104e05760603660031901126104e057610b22611db7565b610b2a611dd2565b6001600160a01b03906044358281169190829003610d965786549460ff93848760081c161595868097610d8a575b8015610d74575b15610d1a57819060ff19988860018b8316178d55610d09575b50610ba3878c5460081c16610b8c816126e3565b610b95816126e3565b610b9e816126e3565b6126e3565b600160c9551692610bb5841515612583565b16908115610cb55750610c05906001600160601b0360a01b928360fb54161760fb5588805260209660658852888a20828b52885285898b20541615610c6d575b50888052609787528789206123fc565b50610c19610c1161268e565b831515612743565b82541617905560fa610100556301e1338061010455610c36578280f35b7f7f26b83ff96e1f2b6a682f133852f6798a09c465da95921460cefb38474024989161ff001984541684555160018152a138808280f35b89805260658852888a20828b5288526001898b209182541617905533818a7f2f8788117e7eff1d82e926ec794901d17c78024a50270940304540a733656f0d8180a438610bf5565b608490602089519162461bcd60e51b8352820152602860248201527f426173654d6f64756c653a2061646d696e2063616e6e6f74206265207a65726f604482015267206164647265737360c01b6064820152fd5b61ffff1916610101178b5538610b78565b885162461bcd60e51b8152602081850152602e60248201527f496e697469616c697a61626c653a20636f6e747261637420697320616c72656160448201526d191e481a5b9a5d1a585b1a5e995960921b6064820152608490fd5b50303b158015610b5f5750600186891614610b5f565b50600186891610610b58565b8680fd5b5050346102645760203660031901126102645760209181906001600160a01b03610dc2611db7565b168152610101845220549051908152f35b8383346102645781600319360112610264578051918183019083821067ffffffffffffffff831117610e3f5750610e3b93508152601882527f312e302e302d526576656e75654469737472696275746f72000000000000000060208301525191829182611e66565b0390f35b634e487b7160e01b815260418552602490fd5b5050346102645760203660031901126102645760209160ff9082906001600160a01b03610e7d611db7565b16815260fc855220541690519015158152f35b50503461026457816003193601126102645751908152602090f35b505034610264578160031936011261026457602090516103e88152f35b9050346104e05760203660031901126104e057803590610ee6611e92565b6103e88211610f2a5750907fa82b850e6100ae23c7e82adbdcf4da8a3740c1540a6241792521a80179a892dc9161010090808254925582519182526020820152a180f35b608490602084519162461bcd60e51b8352820152602560248201527f526576656e75654469737472696275746f723a20666565207261746520746f6f604482015264040d0d2ced60db1b6064820152fd5b9050346104e057816003193601126104e0578160209360ff92610f9c611dd2565b90358252606586528282206001600160a01b039091168252855220549151911615158152f35b9050346104e057816003193601126104e057602092610fed91358152609784528260243591206123e4565b905491519160018060a01b039160031b1c168152f35b919050346104e05761101436611e19565b91909460018060a01b039461102e8660fb541633146127f5565b61103661279f565b61104460fe54841115612857565b82825260209660fd8852858320968288019781831696878652898b5260ff898720541661133057815480156112dd5760ff60068401541661128e57611091600184015461010454906122b2565b4211611239576110f9916110ee916110e98e611b1960f21b8e7f526576656e75654469737472696275746f723a206e6f20746f6b656e732068658151936110d7856121c2565b60228552840152820152831515612743565b612289565b600383015490612767565b9889156111ea5792858a9360028297948e978c61117d9b5288528c8420600160ff19825416179055600581016111308882546122b2565b90558b845261010188528c84206111488882546122b2565b9055015416928a519788958694859363a9059cbb60e01b8552840160209093929193604081019460018060a01b031681520152565b03925af19081156111df57506111c2575b507fb9e8470097faa00e83252475f2ee4b69007b0bb2405268ebec248676998a21b3858451868152a3600160c95551908152f35b6111d890863d88116104295761041a81836121de565b503861118e565b8551903d90823e3d90fd5b885162461bcd60e51b81528086018c90526024808201527f526576656e75654469737472696275746f723a206e6f20726576656e756520736044820152636861726560e01b6064820152608490fd5b895162461bcd60e51b81528087018d9052602960248201527f526576656e75654469737472696275746f723a20636c61696d20646561646c696044820152681b99481c185cdcd95960ba1b6064820152608490fd5b895162461bcd60e51b81528087018d9052602360248201527f526576656e75654469737472696275746f723a20726f756e642066696e616c696044820152621e995960ea1b6064820152608490fd5b895162461bcd60e51b81528087018d9052602760248201527f526576656e75654469737472696275746f723a206e6f20726576656e756520746044820152666f20636c61696d60c81b6064820152608490fd5b885162461bcd60e51b81528086018c9052602360248201527f526576656e75654469737472696275746f723a20616c726561647920636c61696044820152621b595960ea1b6064820152608490fd5b505034610264578160031936011261026457602090517fe4b53607f0d5db686eea4c2568602f38f9a0a31883c6efb58ff2d132f39dd1af8152f35b8284346114835760209081600319360112611483576113d7611db7565b928160018060a01b03851683526101018452818320549360018060fe54915b8281111561141257505050606095508251948552840152820152f35b61141c89826128ad565b158061146b575b611436575b6114319061264e565b6113f6565b80875260fd845261145082878920015461010454906122b2565b421161142857936114636114319161264e565b949050611428565b5080875260fd845260ff600687892001541615611423565b80fd5b5050346102645760203660031901126102645760209181906001600160a01b036114ae611db7565b168152610102845220549051908152f35b8334611483576020366003190112611483576114d9611db7565b6114e1611e92565b6114e961268e565b6001600160a01b03918216919061150290831515612743565b60ff54826001600160601b0360a01b82161760ff55167f430359a6d97ced2b6f93c77a91e7ce9dfd43252eb91e916adba170485cd8a6a48380a380f35b5050346102645760209061155b61155536611e19565b916128e8565b9051908152f35b8284346114835781600319360112611483575061158a602092611583611dd2565b90356128ad565b90519015158152f35b505034610264578160031936011261026457602090517f8619cecd8b9e095ab43867f5b69d492180450fe862e6b50bfbfb24b75dd84c8a8152f35b5050346102645780600319360112610264576115e8611db7565b906024359182151580840361165f577f69bea48d4d07100e196a8ae9d84d86dc925fa6bba03d7bbb8d8cd3decc2069db92611657602093611627611e92565b6001600160a01b03169561163c8715156125ee565b86885260fc85528288209060ff801983541691151516179055565b51908152a280f35b8480fd5b505034610264578160031936011261026457602090610104549051908152f35b919050346104e05760603660031901126104e057813567ffffffffffffffff81116104dc576116b59036908401611de8565b9290936116c0611dd2565b604480359160018060a01b03906116dc8260fb541633146127f5565b6116e461279f565b8497855b8181106116fe5760208a8a600160c95551908152f35b6117138361170d83858f61265d565b356128ad565b15611727575b6117229061264e565b6116e8565b986117338a838d61265d565b89516321c0eb2d60e21b8152903589820152838516602482015285810187905260209081816064818c305af19182156117b8578992611784575b505061177c90611722926122b2565b999050611719565b90809250813d83116117b1575b61179b81836121de565b810103126117ad57518161177c61176d565b8780fd5b503d611791565b8b513d8b823e3d90fd5b839150346102645782600319360112610264576117dd611dd2565b90336001600160a01b038316036117f95790610a1d9135612200565b608490602085519162461bcd60e51b8352820152602f60248201527f416363657373436f6e74726f6c3a2063616e206f6e6c792072656e6f756e636560448201526e103937b632b9903337b91039b2b63360891b6064820152fd5b83833461026457806003193601126102645767ffffffffffffffff9280358481116104dc576118869036908301611de8565b91909460243590811161165f576118a09036908301611de8565b916118a9611e92565b82840361197d5750845b8381106118be578580f35b806119237f69bea48d4d07100e196a8ae9d84d86dc925fa6bba03d7bbb8d8cd3decc2069db88611959611916858a8e6119238e61192d6119288f9d8f9e6119789f60018060a01b039e8f61191b611916868d8d61265d565b61266d565b1615156125ee565b61265d565b612681565b908a61193d61191688888861265d565b16895260209860fc8a52209060ff801983541691151516179055565b92611968611928868a8a61265d565b938a5194151585521692a261264e565b6118b3565b608490602086519162461bcd60e51b8352820152602260248201527f426173654d6f64756c653a20617272617973206c656e677468206d69736d61746044820152610c6d60f31b6064820152fd5b919050346104e057806003193601126104e057611a3a91359060976119ee611dd2565b9280865260209060658252611a0860018589200154612086565b808752606582528387206001600160a01b039095168088529482528387205460ff1615611a3e575b86525283206123fc565b5080f35b808752606582528387208588528252838720805460ff191660011790553385827f2f8788117e7eff1d82e926ec794901d17c78024a50270940304540a733656f0d8a80a4611a30565b505034610264578160031936011261026457602090517f2fc10cc8ae19568712f7a176fb4978616a610650813c9d05326c34abb62749c78152f35b50503461026457816003193601126102645760209060fe549051908152f35b505034610264578160031936011261026457602090517f3c11d16cbaffd01df69ce1c404f6340ee057498f5f00246190ea54220576a8488152f35b9050346104e05760203660031901126104e057803590611b3a611e92565b62278d008210611bdb576303c267008211611b8a5750907f028e8236f110af1df1a52a3f3aaaf4ea1be1737900a8ee06849effd93c9fcf5c9161010490808254925582519182526020820152a180f35b608490602084519162461bcd60e51b8352820152602560248201527f526576656e75654469737472696275746f723a20646561646c696e6520746f6f604482015264206c6f6e6760d81b6064820152fd5b608490602084519162461bcd60e51b8352820152602660248201527f526576656e75654469737472696275746f723a20646561646c696e6520746f6f604482015265081cda1bdc9d60d21b6064820152fd5b9050346104e05760203660031901126104e05781602093600192358152606585522001549051908152f35b505034610264578160031936011261026457602090517f4a04db7e5d3d49285a29b51f294130b264a381bcd66e3f4474bdec268790a58f8152f35b505034610264578160031936011261026457602090517f92de27771f92d6942691d73358b3a4673e4880de8356f8f2cf452be87e02d3638152f35b9050346104e05760203660031901126104e057359063ffffffff60e01b82168092036104e05760209250635a05180f60e01b8214918215611d13575b50519015158152f35b909150637965db0b60e01b8114908115611d30575b509038611d0a565b6301ffc9a760e01b14905038611d28565b833461148357602036600319011261148357611d5b611db7565b611d63611e92565b6001600160a01b0390811690611d7a821515612583565b60fb54826001600160601b0360a01b82161760fb55167fb88a224f84841b0b2043309fb32d4a093a4d2ee563d365b6559933e00e0c3bb98380a380f35b600435906001600160a01b0382168203611dcd57565b600080fd5b602435906001600160a01b0382168203611dcd57565b9181601f84011215611dcd5782359167ffffffffffffffff8311611dcd576020808501948460051b010111611dcd57565b6060906003190112611dcd57600435906024356001600160a01b0381168103611dcd579060443590565b60005b838110611e565750506000910152565b8181015183820152602001611e46565b60409160208252611e868151809281602086015260208686019101611e43565b601f01601f1916010190565b3360009081527fffdfc1249c027f9191656349feb0761381bb32c9f557e01f419fd08754bf5a1b602090815260408083205490929060ff1615611ed457505050565b611edd336122e6565b83519082611eea83612190565b6042835284830193606036863783511561207257603085538351906001918210156120725790607860218601536041915b81831161200457505050611fc257611f70938593611fa893611f99604894611fbe9951988576020b1b1b2b9b9a1b7b73a3937b61d1030b1b1b7bab73a1604d1b8b978801528251928391603789019101611e43565b8401917001034b99036b4b9b9b4b733903937b6329607d1b603784015251809386840190611e43565b010360288101855201836121de565b5162461bcd60e51b815291829160048301611e66565b0390fd5b60648486519062461bcd60e51b825280600483015260248201527f537472696e67733a20686578206c656e67746820696e73756666696369656e746044820152fd5b909192600f8116601081101561205e576f181899199a1a9b1b9c1cb0b131b232b360811b901a61203485886122bf565b5360041c92801561204a57600019019190611f1b565b634e487b7160e01b82526011600452602482fd5b634e487b7160e01b83526032600452602483fd5b634e487b7160e01b81526032600452602490fd5b600081815260209060658252604092838220338352835260ff8483205416156120af5750505050565b6120b8336122e6565b8451916120c483612190565b6042835284830193606036863783511561207257603085538351906001918210156120725790607860218601536041915b81831161214a57505050611fc257611f70938593611fa893611f99604894611fbe9951988576020b1b1b2b9b9a1b7b73a3937b61d1030b1b1b7bab73a1604d1b8b978801528251928391603789019101611e43565b909192600f8116601081101561205e576f181899199a1a9b1b9c1cb0b131b232b360811b901a61217a85886122bf565b5360041c92801561204a576000190191906120f5565b6080810190811067ffffffffffffffff8211176121ac57604052565b634e487b7160e01b600052604160045260246000fd5b6060810190811067ffffffffffffffff8211176121ac57604052565b90601f8019910116810190811067ffffffffffffffff8211176121ac57604052565b90604061223e9260009080825260656020528282209360018060a01b03169384835260205260ff8383205416612241575b8152609760205220612493565b50565b808252606560205282822084835260205282822060ff1981541690553384827ff6391f5c32d9c69d2a47ea670b442974b53935d1edc7fd64eb21e047a839171b8580a4612231565b8181029291811591840414171561229c57565b634e487b7160e01b600052601160045260246000fd5b9190820180921161229c57565b9081518110156122d0570160200190565b634e487b7160e01b600052603260045260246000fd5b604051906122f3826121c2565b602a82526020820160403682378251156122d0576030905381516001908110156122d057607860218401536029905b8082116123765750506123325790565b606460405162461bcd60e51b815260206004820152602060248201527f537472696e67733a20686578206c656e67746820696e73756666696369656e746044820152fd5b9091600f811660108110156123cf576f181899199a1a9b1b9c1cb0b131b232b360811b901a6123a584866122bf565b5360041c9180156123ba576000190190612322565b60246000634e487b7160e01b81526011600452fd5b60246000634e487b7160e01b81526032600452fd5b80548210156122d05760005260206000200190600090565b91906001830160009082825280602052604082205415600014612480578454946801000000000000000086101561246c578361245c612445886001604098999a018555846123e4565b819391549060031b91821b91600019901b19161790565b9055549382526020522055600190565b634e487b7160e01b83526041600452602483fd5b50925050565b9190820391821161229c57565b9060018201906000928184528260205260408420549081151560001461257c5760001991808301818111612568578254908482019182116125545780820361251f575b5050508054801561250b578201916124ee83836123e4565b909182549160031b1b191690555582526020526040812055600190565b634e487b7160e01b86526031600452602486fd5b61253f61252f61244593866123e4565b90549060031b1c928392866123e4565b905586528460205260408620553880806124d6565b634e487b7160e01b88526011600452602488fd5b634e487b7160e01b87526011600452602487fd5b5050505090565b1561258a57565b60405162461bcd60e51b815260206004820152603660248201527f426173654d6f64756c653a20506174656e74436f696e20636f6e74726163742060448201527563616e6e6f74206265207a65726f206164647265737360501b6064820152608490fd5b156125f557565b60405162461bcd60e51b815260206004820152602b60248201527f426173654d6f64756c653a206d756c74697369672063616e6e6f74206265207a60448201526a65726f206164647265737360a81b6064820152608490fd5b600019811461229c5760010190565b91908110156122d05760051b0190565b356001600160a01b0381168103611dcd5790565b358015158103611dcd5790565b6040519061269b826121c2565b60338252726e6f74206265207a65726f206164647265737360681b6040837f526576656e75654469737472696275746f723a2074726561737572792063616e60208201520152565b156126ea57565b60405162461bcd60e51b815260206004820152602b60248201527f496e697469616c697a61626c653a20636f6e7472616374206973206e6f74206960448201526a6e697469616c697a696e6760a81b6064820152608490fd5b1561274b5750565b60405162461bcd60e51b8152908190611fbe9060048301611e66565b8115612771570490565b634e487b7160e01b600052601260045260246000fd5b90816020910312611dcd57518015158103611dcd5790565b600260c954146127b057600260c955565b60405162461bcd60e51b815260206004820152601f60248201527f5265656e7472616e637947756172643a207265656e7472616e742063616c6c006044820152606490fd5b156127fc57565b60405162461bcd60e51b815260206004820152602d60248201527f426173654d6f64756c653a2063616c6c6572206973206e6f7420506174656e7460448201526c10dbda5b8818dbdb9d1c9858dd609a1b6064820152608490fd5b1561285e57565b60405162461bcd60e51b815260206004820152602160248201527f526576656e75654469737472696275746f723a20696e76616c696420726f756e6044820152601960fa1b6064820152608490fd5b60fe5481116128e15760005260fd60205260046040600020019060018060a01b031660005260205260ff6040600020541690565b5050600090565b60fe54811161298357600090815260fd602052604081209160018060a01b031681526004820160205260ff604082205416801561297a575b801561296c575b6129665761293d600183015461010454906122b2565b42116129665782156129665750600361295a612963938354612289565b91015490612767565b90565b91505090565b5060ff600683015416612927565b50815415612920565b50505060009056fea264697066735822122061070e1595ab864a22c8df0c276d78faca56545127beb746bd49ae616992a97164736f6c63430008130033",
  "linkReferences": {},
  "deployedLinkReferences": {}
}